:100000000C940B0F0C9400000C9400000C94000056
:100010000C9400000C9400000C9400000C94000060
:100020000C9400000C9400000C9400000C94000050
:100030000C9400000C9400000C9400000C94000040
:100040000C9400000C9400000C9400000C94000030
:100050000C940000FAFFFFFFFFFFEFEFEEE7F7EF72
:10006000EFE7E7C7C7C787878707070707070707B8
:100070000707070707070727871F1707071F17AF78
:100080009707070797078707072707070707878740
:10009000C7C7E7E7E7E7E7E7E7F7E7E7EFF7E7E708
:1000A000E7D7C787E7078767871707D707D7070FF8
:1000B0000707470707271707070767478707070740
:1000C00007C7C7E7F7F7E7E7C7C7870F0F1F3FFF68
:1000D000FFFFFFFFFFFFFFFFFFFFFFFFFFFFFFFF30
:1000E000FFFFFF7F7FFF3F3F3F0E0000000000004B
:1000F000000000C880100080280450936100AA828C
:100100000102000410028CC414020000041F3F3FCF
:100110007F7FFFFFFFFFFFFFFFFFFFFFFFFFFFFFEF
:10012000FF7F7F3F3F5F4020C400089000100082A7
:1001300008100000080080400C00204020002034FF
:100140001F7F7FFFFFFFFFFF7FFF9F112010002217
:10015000FFFFFFFFFFFFFFC4603990DBC8CCF4A8AE
:10016000804040000A0880C08000000000000000BD
:1001700000000000000142419884C2CEE1C6C3885D
:10018000021591D0E4868101008200000000000089
:10019000000000000000000000000080C8D0C0C1C6
:1001A000E0C890A80330380CA200000000800804CA
:1001B000004800001000C4D0C04008000010000437
:1001C0002101000608208008004500800202240268
:1001D000FFFFFFFFFFFFFFFC7E0F8783E7C1C5C363
:1001E000E3C3C4C00200FFFFFF00000000000000E6
:1001F000000000E0F0FE7E1F074391C1850717272E
:100200004116FFFFFF09030B87870E1E3CF8F0C065
:100210000000000000000000000800FFFFFFE1C137
:10022000D5E3F7FF7FBE040082E0F0F0783838F8BD
:10023000F0F000000000F1F9F10000F8F8F8F070BB
:100240003838F9F2E10050397838FFFFFF3C783E4A
:10025000FFFFFFFFFFFFFF7FF2EFE3F3E3F9713DE5
:100260003F0F838002007FFFFFE0E0E0E0F070706E
:100270007020000F3F7FF0E2F2E0E1717E793800FC
:1002800000107F7F7FE0E0E0F1E0F0707C3F1F072F
:1002900000000000000000400000007FFF7F01011F
:1002A00005010080441000019F7F7FF0E1E0F07FB6
:1002B0007FFFE00000007FFF7F00007FFF7F0100E5
:1002C00000097FFF7F00080100007FFF7F400004DE
:1002D000FFFFFFFFFFFFFF000000090000014200D9
:1002E00000102012040100000000000000000000C7
:1002F0000000000000001000001002000368640805
:10030000C23110B05006382A7400821525600022D0
:1003100000A80A00242480100008A0000584001012
:10032000000040040400020000040000402000001F
:1003300000000000000000000000000000000000BD
:1003400010008410010400001901002800120A4066
:10035000FFFFFFFFFFFFFF000011000480420000CD
:100360000008000040A0000000C0F8F8FCFCFEFC03
:10037000FCFCF8F8C000401040210008010809F614
:100380000B86515D0A42490AC02AAC421BC608507E
:10039000FA20010004080800000200100080000498
:1003A00080000040040010010104000400808080EF
:1003B000C0C0C0C0E0E0E0E0E0E0F0F0F0F0F0F05D
:1003C000F0F0F0F0F0F0F0F0F4F0F8F0F0F0F0F021
:1003D000FFFFFFFFFFFFFFFFFCFEFAF0E0E8E0E0B9
:1003E000E8E8E0E8E0E0E0E0E0E3FFFFFFFFFFFF38
:1003F000FFFFFFFFE3E0EAE2E0E0F2E0E5F4E2E441
:10040000E6F6F2F8C2C0C1E0C0E8E6E6F1F9E1E2E2
:10041000EAE1EAF0E0E8F0E0E0F9E0CCC1C0C0C019
:10042000C0E0E0F0F8FDFCFCFFFEFFFFFFFFFFFF78
:10043000FFFFFFFFFFFFFFFFFFFFFFFFFFFFFFFFCC
:10044000FFFFFFFFFFFFFFFFFFFFFFFFFFFFFFFFBC
:10045000FFFFFF000000000000000000000000009F
:10046000000000000000000000000000000000008C
:10047000000000000000000000000000000000007C
:10048000000000000000000000000000000000006C
:10049000000000000000000000000000000000005C
:1004A000000000000000000000000000000000004C
:1004B000000000000000000000000000000000003C
:1004C000000000000000000000000000000000002C
:1004D000000000002020282868B060202020282A62
:1004E000283020200080804432242020002424242E
:1004F0003820202020202020242A11002020202401
:100500002A11202030202020242A112020203020D1
:100510003028281820242221242A110024222124D2
:100520002A11202030242221242A112000808040FA
:100530003020202020202060A06028302020206053
:10054000B060202000302860A06030200004061D2C
:1005500025242020000000000000000000004F00C3
:1005600000000000000700070000000000147F14D6
:100570007F14000000242A7F2A12000000231308A1
:100580006462000000364955224000000000050367
:1005900000000000001C2241000000000041221C5D
:1005A000000000000014083E081400000008083E87
:1005B00008080000000028180000000000080808D3
:1005C000080808000030300000000000002010087B
:1005D00004020000003E5149453E00000000427FF9
:1005E00040000000004261514946000000214145A1
:1005F0004B310000001814127F1000000000274546
:1006000045453900003C4A49493000000001710964
:1006100005030000003649494936000000064949F3
:10062000291E00000000363600000000000056368B
:1006300000000000000814224100000000242424CF
:10064000242400000000412214080000000201518F
:100650000906000000324979413E0000007E111178
:10066000117E0000007F494949360000003E4141AB
:1006700041220000007F4141221C0000007F4949C7
:1006800049410000007F090909010000003E41497D
:10069000493A0000007F0808087F00000000417F01
:1006A00041000000002040413F010000007F08148D
:1006B00022410000007F404040400000007F020CCB
:1006C000027F0000007F0408107F0000003E4141CF
:1006D000413E0000007F0909090600003E4151210A
:1006E0005E000000007F09192946000000464949C4
:1006F000493100000001017F01010000003F40403E
:10070000403F0000001F2040201F0000003F4060CD
:10071000403F0000006314081463000000070870E5
:10072000080700000061514945430000007F414136
:10073000000000000015167C161500000041417FE6
:1007400000000000000402010204000000404040DC
:10075000404000000001020400000000002054544A
:1007600054780000007F444444380000003844447A
:100770004400000000384444487F000000385454CE
:100780005418000000107E1101020000000C5252AB
:10079000523E0000007F0804047800000000447D01
:1007A00040000000002040403D000000007F102875
:1007B000440000000000417F40000000007C04185D
:1007C00004780000007C08040478000000384444E9
:1007D00044380000007C14141408000000081414AD
:1007E000187C0000007C08040408000000485454F1
:1007F0005420000000043F4440200000003C4040E2
:10080000207C0000001C2040201C0000001E201046
:10081000201E000000221408142200000006484890
:10082000483E0000004464544C4400000008364137
:10083000000000000000007F0000000000413608BA
:10084000000000000008082A1C08000000081C2AFC
:1008500008080000003C4241423C00000030286093
:10086000A060283020202020A02028302020202018
:10087000B020202000302820A0203020202020225E
:100880002022283020202022302220200030282240
:100890002022302020202022212228302020202227
:1008A0003122202000302822212230202020282818
:1008B00028B02020202028282830202000C0A82868
:1008C00068B06020000080804432040000242524A9
:1008D0003820202030242221242A1100008080404A
:1008E00034202020202020382038201820203820B4
:1008F0003820382060808078203820182020203848
:10090000223922182020382239223820608080782D
:100910002239221830202020242A110020302030B3
:100920002828382060808060302828382020302017
:1009300030282A1820302030282A38206080806013
:1009400030282A3820203E302828382020203E30E9
:10095000282A38202020202030282800202020305D
:10096000282820200040A0B0282820202020202057
:1009700030282A0020202030282A20200040A0B043
:10098000282A20202020202030282A30202030280B
:100990002A3020200018202030282A302020202033
:1009A000302A28322020302A28322020608080B24D
:1009B000A87A202022252525252525192020201C40
:1009C0002221202030282C2A203F202020202020D7
:1009D00020201F00202020201F2020200030404009
:1009E0003F20202020202020304848302020304840
:1009F00048302020804030484830202020202020CF
:100A000022201800202020201A202020304044409E
:100A10003020202020202030283A2C182020302878
:100A20003A2C3820001814141820202000212224E9
:100A300028100F0000B0A87820202020202020A01F
:100A400020A02830202020A030A02020006080801E
:100A5000A0501020001E2020202020200020302820
:100A600028200000000402023A02020100000406ED
:100A70003D050400000004B6AD7D0400000080C008
:100A8000BFA0800004668595A8A848000000003F2C
:100A90000000000000302820A02028300000302A6C
:100AA000283200000030282220222830003028225E
:100AB0002122283000C0A8A828B0202000C0A8A863
:100AC000A830202000C0A8AA28302020000024241C
:100AD00024380000000024252438000000808040D5
:100AE000300000000000808040340000608080788A
:100AF0002038201860808078223922186080806039
:100B0000302828186080806030282A1800221408B5
:100B10001422000020203E302828180020203E30DB
:100B2000282A1800000040A0B0282800000040A09B
:100B3000B02A28002020202020202020001820205B
:100B400030282A3000608080B2A87A000030282C3B
:100B50002A203F000040A9AAA8F000000000608001
:100B6000807E00000040AAA9AAF000000000C0207A
:100B70003028283000006080888060000000302825
:100B800028300000000000B0A878000004262525C9
:100B900028100F000422222629100F0000212224F1
:100BA000A8D0AFA00070AAA9AA3000000070AAA81F
:100BB000AA30000000304040502808000030C040FB
:100BC000D02808000000027902000000000002782E
:100BD0000200000000000000000505050000000400
:100BE000030B0606A0A0A000000000000000010109
:100BF000010100000021222428102F200000000005
:100C000000040303000080808080000000001010BA
:100C100054101000000002040204020020242625C3
:100C2000252028302024262535202020086C8A8A7B
:100C3000A050102004B6AD7D2420202000191415EA
:100C4000182020200402021A222221200040605095
:100C500048504040C1C1C1C10000C2C2FEFE0100F7
:100C6000C3C31F1F0100C4C4FCFC0100C5C5C5C52A
:100C70000101C6BDBFBE0101C7C7C0C00100C88217
:100C800084830101C9C9FDFD0100CA858786010170
:100C9000CB888A890101CC8BCC8B0101CD8CCD8C8A
:100CA0000101CE11CE110101CFCF13130100D0D01D
:100CB0008F8F0100D1D11B1B0100D2D29191010075
:100CC000D39294930101D49597960101D5179A99DF
:100CD0000101D69B9D9C0101D7D7D7D70000D8D85A
:100CE0009E9E0101D9D99F9F0101DAA0A2A1010115
:100CF000DBA3A5A40101DCDCDCDC0000DDA6A8A7E9
:100D00000101DEA9ABAA0101DFACAEAD0101E0E05B
:100D1000E0E00000E1AFB1B00101E2E2E2E2000098
:100D2000E3B2B4B30101E4B5B7B60101E5B8BAB9AD
:100D30000101E6E6BCBC0100E7E7E7E70000E8E800
:100D4000E8E80000E9E9E9E90000EAEAEAEA000087
:100D5000EBEBEBEB0000ECBDBFBE0101EDBDBFBE98
:100D60000101EEEEEEEE0000EFEFEFEF0000F0F02D
:100D7000F0F00000F1F1F1F10000F2F2F2F2000007
:100D8000F3F3F3F30000F5F5F5F50000F6F6F6F6EB
:100D90000000F7F7F7F70000F8F8F8F80000FBF9A3
:100DA000FBFA0101BBBBF4F40100811C1E1D010113
:100DB00090181A1901019814161501018E8E12123D
:100DC00001008D108D1001010000000000000000E6
:100DD000000000008000004080800000004040C013
:100DE000C0D89090902060E0E0E0E0E0E0C0C080FB
:100DF00040808000000000000000000000000000B3
:100E000000000000000000000000000000000000E2
:100E100000000000000000000000000000000000D2
:100E200000000000000000000000000000000000C2
:100E300000000000000000000000000000000000B2
:100E40000000000000000000000000000000001092
:100E5000100408380101050D010104010E0E0404FF
:100E600001090505050D0A1F170F0F1F1F3F7FFF03
:100E7000FCFCF8F8F8F8F2E2F4FEFCF8FAFEEC1CE0
:100E8000B0C0E27CF278C00080008000000000006A
:100E90000000000000000000000000000000000052
:100EA0000000000000000000000000000000000042
:100EB0000000000000000000000000000000000032
:100EC0000000000000000000000000000000000022
:100ED0000000000000000000000000000000000012
:100EE00000000000000000008080808080C080C082
:100EF000818181818181838183030704010B050343
:100F0000070F1F3E1000071F3F38031E00001C0084
:100F100000000000000000000000000000000000D1
:100F200000000000000000000000000000000000C1
:100F300000000000000000000000000000000000B1
:100F400000000000000000000000000000000000A1
:100F50000000000000000000000070F0ECFEF6F25F
:100F6000F3F9FBFFFF7F3F3D3FFFFEFCFCFFFFFF70
:100F7000FFFFFFFFFFFFFFFFFFFFFFFEFEFEFEFC88
:100F8000FCF8F0F0E0C0800000000000000000006D
:100F90000000000000000000000000000000000051
:100FA0000000000000000000000000000000000041
:100FB0000000000000000000000000000000000031
:100FC0000000000000000000000000000000000021
:100FD000000008080000080C7C383C7E7F7F1F1F43
:100FE00037030100000000000F7FFFFFFFFFFFFC41
:100FF000FCFEFFFFFFFFFFFFFF7F1F00010307074E
:101000000F1C397160C3878F0200000000000000D0
:1010100000000000000000000000000000000000D0
:1010200000000000000000000000000000000000C0
:1010300000000000000000000000000000000000B0
:1010400000000000000000000000000000000000A0
:1010500000000000000000000000000001071B1855
:101060000C0C040800602060604020010307C707E3
:101070000F8F0707070703010000000000000000B2
:10108000000000000001000000000000000000005F
:101090000000000000000000000000000000000050
:1010A0000000000000000000000000000000000040
:1010B0000000000000000000000000000000000030
:1010C0000000000000000000000000000000000020
:1010D0000000000000000000000000000000000010
:1010E0000000000000000000000000000000000000
:1010F00000030000000000000000000000000000ED
:1011000000000000000000000000000000000000DF
:1011100000000000000000000000000000000000CF
:1011200000000000000000000000000000000000BF
:1011300000000000000000000000000000000000AF
:10114000000000000000000000000000000000009F
:10115000000000000000000000000000000000008F
:10116000000000000000000000000000000000007F
:10117000000000000000000000000000000000006F
:10118000000000000000000000000000000000005F
:10119000000000000000000000000000000000004F
:1011A000000000000000000000000000000000003F
:1011B000000000000000000000000000000000002F
:1011C000000000000000000000000000000000001F
:1011D000000000000000000000000000000000000F
:1011E00000000000000000000000000000000000FF
:1011F00000000000000000000000000000000000EF
:1012000000000000000000000000000000000000DE
:1012100000000000000000000000000000000000CE
:1012200000000000000000000000000000000000BE
:1012300000000000000000000000000000000000AE
:10124000000000000000000000000000000000009E
:10125000000000200000000000000400000000006A
:1012600000000000000C081C14000018103074F876
:10127000F0D0F0E0E0E0E0C080C0E0E0808000007E
:10128000004080000000000000000000000000009E
:10129000000000000000000000000000000000004E
:1012A000000000000000000000000000000000003E
:1012B000000000000000000000000000000000002E
:1012C000000000000000000000000000000000001E
:1012D000000000000000000000000000000000000E
:1012E00000000000000000000000000000000000FE
:1012F000010101010101030103030704010B0402C1
:10130000070E1F3E1000001C30000000000000000F
:1013100000000000000000000000000000000000CD
:1013200000000000000000000000000000000000BD
:1013300000000000000000000000000000000000AD
:10134000000000000000000000000000000000009D
:10135000000000000000000000000080E060E0A04D
:10136000B0F0F0F0F070383838F8FCF8F8F8FC78A5
:10137000787CFCFCFCF8F8F8F8F8F0F0F0F0F0F00D
:10138000E0E0C080800000000000000000000000DD
:10139000000000000000000000000000000000004D
:1013A000000000000000000000000000000000003D
:1013B000000000000000000000000000000000002D
:1013C000000000000000000000000000000000001D
:1013D000000000000000000040303C7E7F7F1F1FA7
:1013E0003703010000000000030F7F7FFFFFFF7C39
:1013F0007C7E7F7F7F7F7F7FFF0F070001030707D2
:101400000F1C397160C28400000000000000000061
:1014100000000000000000000000000000000000CC
:1014200000000000000000000000000000000000BC
:1014300000000000000000000000000000000000AC
:10144000000000000000000000000000000000009C
:101450000000000000000000000000000101010089
:10146000000000000000000000000000000000007C
:10147000000000000000000000000000000000006C
:10148000000000000000000000000000000000005C
:10149000000000000000000000000000000000004C
:1014A000000000000000000000000000000000003C
:1014B000000000000000000000000000000000002C
:1014C000000000000000000000000000000000001C
:1014D000000000000000000000000000000000000C
:1014E00000000000000000000000000000000000FC
:1014F00000000000000000000000000000000000EC
:1015000000000000000000000000000000000000DB
:1015100000000000000000000000000000000000CB
:1015200000000000000000000000000000000000BB
:1015300000000000000000000000000000000000AB
:10154000000000000000000000000000000000009B
:10155000000000000000000000000000000000008B
:10156000000000000000000000000000000000007B
:10157000000000000000000000000000000000006B
:10158000000000000000000000000000000000005B
:10159000000000000000000000000000000000004B
:1015A000000000000000000000000000000000003B
:1015B000000000000000000000000000000000002B
:1015C000000000000000000000000000000000001B
:1015D000000000000000000000000000000000000B
:1015E00000000000000000000000000000000000FB
:1015F00000000000000000000000000000000000EB
:1016000000000000000000000000000000000000DA
:1016100000000000000000000000000000000000CA
:1016200000000000000000000000000000000000BA
:1016300000000000000000000000000000000000AA
:10164000000000000000000000000000000000009A
:10165000000000000000000000000000000000008A
:10166000000000000000001010000018103070F89A
:10167000F0D0F0E0E0E0E0C080C0E0E0808000007A
:10168000004080000000000000000000000000009A
:10169000000000000000000000000000000000004A
:1016A000000000000000000000000000000000003A
:1016B000000000000000000000000000000000002A
:1016C000000000000000000000000000000000001A
:1016D000000000000000000000000000000000000A
:1016E00000000000000000000000000000000000FA
:1016F000010101010101030103030704010B0402BD
:10170000070E1F3E1000001C30000000000000000B
:1017100000000000000000000000000000000000C9
:1017200000000000000000000000000000000000B9
:1017300000000000000000000000000000000000A9
:101740000000000000000000000000000000000099
:101750000000000000000000000000000000000089
:101760000000000000000000000000000000000079
:101770000000000000000000000000000000000069
:101780000000000000000000000000000000000059
:101790000000000000000000000000000000000049
:1017A0000000000000000000000000000000000039
:1017B0000000000000000000000000000000000029
:1017C0000000000000000000000000000000000019
:1017D00000000000000000000020004060600000E9
:1017E0000000000000000000000000008080800079
:1017F0000000000010707078F80800000000000081
:1018000000002060404000000000000000000000D8
:1018100000000000000000000000000000000000C8
:1018200000000000000000000000000000000000B8
:1018300000000000000000000000000000000000A8
:101840000000000000000000000000000000000098
:101850000000000000000000000000000001010086
:101860000000000000000000000000000000000078
:101870000000000000000000000000000000000068
:101880000000000000000000000000000000000058
:101890000000000000000000000000000000000048
:1018A0000000000000000000000000000000000038
:1018B0000000000000000000000000000000000028
:1018C0000000000000000000000000000000000018
:1018D0000000000000000000000000000000000008
:1018E00000000000000000000000000000000000F8
:1018F00000000000000000000000000000000000E8
:1019000000000000000000000000000000000000D7
:1019100000000000000000000000000000000000C7
:1019200000000000000000000000000000000000B7
:1019300000000000000000000000000000000000A7
:101940000000000000000000000000000000000097
:101950000000000000000000000000000000000087
:101960000000000000000000000000000000000077
:101970000000000000000000000000000000000067
:101980000000000000000000000000000000000057
:101990000000000000000000000000000000000047
:1019A0000000000000000000000000000000000037
:1019B0000000000000000000000000000000000027
:1019C0000000000000000000000000000000000017
:1019D0000000000000000000000000000000000007
:1019E00000000000000000000000000000000000F7
:1019F00000000000000000000000000000000000E7
:101A000000000000000000000000000000000000D6
:101A100000000000000000000000000000000000C6
:101A200000000000000000000000000000000000B6
:101A300000000000000000000000000000000000A6
:101A40000000000000000000000000000000000096
:101A50000000000000000000000000000000000086
:101A6000000000000000001010000018103070F896
:101A7000F0D0F0E0E0E0E0C080C0E0E08080000076
:101A80000040800000000000000000000000000096
:101A90000000000000000000000000000000000046
:101AA0000000000000000000000000000000000036
:101AB0000000000000000000000000000000000026
:101AC0000000000000000000000000000000000016
:101AD0000000000000000000000000000000000006
:101AE00000000000000000000000000000000000F6
:101AF000010101010101030103030704010B0402B9
:101B0000070E1F3E1000001C300000000000000007
:101B100000000000000000000000000000000000C5
:101B200000000000000000000000000000000000B5
:101B300000000000000000000000000000000000A5
:101B40000000000000000000000000000000000095
:101B50000000000000000000000000000000000085
:101B60000000000000000000000000000000000075
:101B70000000000000000000000000000000000065
:101B80000000000000000000000000000000000055
:101B90000000000000000000000000000000000045
:101BA0000000000000000000000000000000000035
:101BB0000000000000000000000000000000000025
:101BC0000000000000000000000000000000000015
:101BD00000000000000000000020004060600000E5
:101BE0000000000000000000000000008080800075
:101BF0000000000010707078F8080000000000007D
:101C000000002060404000000000000000000000D4
:101C100000000000000000000000000000000000C4
:101C200000000000000000000000000000000000B4
:101C300000000000000000000000000000000000A4
:101C40000000000000000000000000000000000094
:101C50000000000000000000000000000001010082
:101C60000000000000000000000000000000000074
:101C70000000000000000000000000000000000064
:101C80000000000000000000000000000000000054
:101C90000000000000000000000000000000000044
:101CA0000000000000000000000000000000000034
:101CB0000000000000000000000000000000000024
:101CC0000000000000000000000000000000000014
:101CD0000000000000000000000000000000000004
:101CE00000000000000000000000000000000000F4
:101CF00000000000000000000000000000000000E4
:101D000000000000000000000000000000000000D3
:101D100000000000000000000000000000000000C3
:101D200000000000000000000000000000000000B3
:101D300000000000000000000000000000000000A3
:101D40000000000000000000000000000000000093
:101D50000000000000000000000000000000000083
:101D60000000000000000000000000000000000073
:101D70000000000000000000000000000000000063
:101D80000000000000000000000000000000000053
:101D90000000000000000000000000000000000043
:101DA0000000000000000000000000000000000033
:101DB0000000000000000000000000000000000023
:101DC0000000000000000000C100C3D3C7E3C92029
:101DD000D5E1C7CD20C7E1CFEDE400E3D1CDC8C741
:101DE000004F53414D412053414C41480057454C11
:101DF000434F4D4500002D4E414E000001002D4E39
:101E0000414E00494E46000001006002C81D01001D
:101E10006502FC1D0000F894EE27ECBBF1E0FBBF6F
:101E2000EBBFE5BFF8E1F1BDE1BD8DE0A2E0BB276E
:101E3000ED938A95E9F780E098E0A0E6ED930197AD
:101E4000E9F7E8E0FEE185919591009761F0A591B1
:101E5000B59105901590BF01F00105900D92019785
:101E6000E1F7FB01F0CFEFE5EDBFE8E0EEBFC0E644
:101E7000D2E00C94F714A99A88E08A95F1F7A99812
:101E800088E08A95F1F70895AA98AB989798A89852
:101E9000EFE305C0AA98AB989798A898EEE3EBBB40
:101EA000EADF08959798A898AA98AB98E881E06C23
:101EB000EBBB38C01A939798A898A981BA81A0342F
:101EC000E0E0BE0720F4AA98AB9A198107C0AB984E
:101ED000AA9AE981FA81E054F0401E2FE12FE064D4
:101EE000EF771E2F1BBBC7DF188138C01A93979856
:101EF000A898E981E86BEF7B1E2F1BBBBCDF188124
:101F00002DC0EA81FB810E941017E881F9810E94AF
:101F1000141724960895979AA898E881EBBB83E05C
:101F20008A95F1F7A8DF219608951A930A930E94E3
:101F300018170E941D170E9423170E941D17AA98A8
:101F400000E010E00134E0E01E0734F4E0E0EA9342
:101F5000E2DF0F5F1F4FF6CF1981088123960895A6
:101F60001A930A9300E010E00830E0E01E072CF41A
:101F70000A93DBDF0F5F1F4FF7CF09911991089587
:101F80001A9310E0E0E0EABBA89A979AA981EFE3E0
:101F90000E94491BE03011F4AA9801C0AA9AAA9B9A
:101FA00002C0AB9801C0AB9A83E08A95F1F7A99A79
:101FB00083E08A95F1F7A99885E38A95F1F7A99AC4
:101FC00083E08A95F1F719B3A99883E08A95F1F730
:101FD000EFEFEABBE12F1881229608951A930E9431
:101FE0002817E981E03051F40E943417E095EF930F
:101FF000EC81EA93C5DFAF91EA230AC0E13049F4EE
:102000000E943417EF93EC81EA93BADFAF91EA2B89
:102010001E2F0E9428171A937EDF18812696089596
:102020001A930A930F811885EF81F885AC81B0E08F
:10203000EA0FFB1F0E171F0750F41A930A93EF8144
:10204000F8850E943C17CADF0E944117EDCF198125
:102050000881299608951A930A930E811F81EC81B5
:10206000FD81AE81BF81EA0FFB1F0E171F0750F4E1
:102070000E9447171A930A93EE81EA93AFDF0E94FA
:102080004117EDCF198108810AC128970E947B1B57
:102090000E944C1781F40E9453170E9453170E940C
:1020A0005817A88DB98DEC89FD890E94611731966A
:1020B0000E946717D5C0E889F989AC89BD89EA17FC
:1020C000FB0791F40E9453170E9458170E94531760
:1020D000AA8DBB8DEE89FF890E946117EF5FEA939D
:1020E000EC890E946F17BCC00E944C1790F43E8987
:1020F000EA89FB89EE8BFF8B0E947417EA8BFB8BBE
:102100003C89E889F989EC8BFD8B0E947417E88B78
:10211000F98BAC89BD89E889F989EA1BFB0B0E9420
:102120003F1B0E94FA197F936F93FF93EF93AE8941
:10213000BF89EA89FB89EA1BFB0BAF91BF918F91A5
:102140009F910E9477170E94D21AEA87FB876C87BB
:102150007D870E947C17AC89BD89882799270E94BA
:102160006B1B0E946E1B0E942D1AEE83FF836887F3
:1021700079870E947C170E9486170E94C1192E2F12
:10218000522FEE89EF5F1E2F0E948D1710F40C94D2
:102190002911E12FAA85BB858C859D85FF276627A0
:1021A00077270E94FA190E94841A0E948617A0E0DD
:1021B000B0E080E09FE30E94341A0E94C1190E2F04
:1021C000A02FA51BA23044F00E949417E52F0E9477
:1021D0009A17A02FA51B0BC0A52FA01BA23064F03F
:1021E0000E949417E02F0E949A17A52FA01BE1E0F0
:1021F0000E949F170E9467170E948D1711F4021703
:1022000009F00EC00E9453170E94A417AA8DBB8D1F
:10221000EE89FF89EA1BFB0BEA93E0E00E946F174F
:10222000502F0217A1F00E945317E22F0E94A91706
:10223000EA8DFB8D0E94AD17AE1BBF0BAA93E0E0A9
:102240000E946F170E94B017EE8BFF8B202F1F5F2D
:102250009BCF0E94B3170E94B317EA89EA93BEDEB0
:102260000E94821B689608950E9447170E94471794
:102270000E94B817EC81FD81FA93EA930E94B81787
:102280000E9447170E94C6170E94CD17EC81FD815E
:102290000E94D5170E94C61731960E94CD172A9624
:1022A00008950E94D8170E94D8170E94D8170E943C
:1022B000D8170E94DD170E9447170E9447170E94F7
:1022C00047170E9447170E94DD170E94D8170E94E7
:1022D000D8170E94E3170E94E3170E94E8170E9494
:1022E000E317E889F9890E94D5170E94E3170E9435
:1022F000E8170E94D8170E94E317EC85FD850E941D
:10230000D5170E94E8170E94E317EC85FD850E940F
:10231000D5170E9447170E94E817629608950E94F9
:10232000EE170E94EE17EE810E94A9170E94F31784
:10233000ED81FE81FA93EA93EC810E94F9170E94E5
:10234000FD17EE810E94A9170E94F3170E94EE1755
:102350000E94EE170E94EE170E9405180E94E817CF
:102360000E94EE17EC810E940A180E940E180E942B
:10237000EE170E94EE170E94E8170AC30E94B317D7
:102380000E94B3170E94B3170E94B317EB890E94F3
:1023900014180E94EE170E94EE170E94EE170E947A
:1023A000EE17EA850E9414180E94B3170E94B31713
:1023B0000E941B180E941B180E94E8170E942018F8
:1023C0000E9420180E94EE170E94EE170E94E81744
:1023D0000E94B317ED85AA89BB89F0E00E940E1810
:1023E0000E941B18E885AD85BE85F0E00E940E189E
:1023F0000E94E8170E942018ED85AE85BF85F0E0A9
:102400000E94FD170E94EE170E9405180E94E8170F
:10241000649608950E947D1B3E8110E0EE81FF814D
:102420000E94AD17AE17BF0710F00C947512EE8125
:10243000FF81AE81BF810E944E1BBF01A12FBB2730
:102440000E94B0170E94561BDB010E9425180E94B3
:10245000EF160E2F0E942A180E9437180E942A1881
:102460000E942518E885EA93B9DD0E943F180E9472
:1024700044180E9437180E943F180E9444180E9476
:102480002518E885EA93AADD0E9449180E94D5160E
:10249000329740F10E944C180E9456180E94591819
:1024A0000E9463180E944C180E9456180E946D18D2
:1024B0000E9449180E9463180E9472180E947417A3
:1024C0000E9456180E9459180E9463180E947218A0
:1024D0000E9474170E9456180E946D180E94491895
:1024E0000E946318302F1F5F99CF0E947818EA85E9
:1024F000FB850E9456180E9482180E9478180E943C
:1025000044180E9425180E94A4170E9482180E9455
:102510007218EA85FB850E9456180E9482180E9454
:1025200072180E9444180E9425180E94A4170E9445
:1025300082180E94841B2C9608951A93EB81FC81CB
:102540000E941017E981FA810E94141710E01830D8
:1025500080F4ED81FE810E942B1BDF010E94B017E9
:10256000EA0FFB1FEC5AFB4FE491EA93D4DC1F5FA8
:10257000EECF18812DC10E947D1B20E010E0EC8180
:102580001E17E0F400E00830B8F40E948818E695C1
:10259000EC93ED81E1703E2F303021F00E948818DD
:1025A000E068EC932F5FEC81E21721F4ED81E69572
:1025B000ED8320E00F5FE7CF1F5FE1CF0E94841B18
:1025C00028960895EF9721970E947D1B0E948F18EF
:1025D0000E941017FE01EB5BFF4F0190F081E02D90
:1025E0000E94141710E0183008F50E94B017BF01C0
:1025F0000E942B1BDE011496EA0FFB1FFA93EA934D
:10260000FE01E55BFF4F0190F081E02D0E942B1B46
:10261000E60FF71FEC5AFB4FE491EA93FE01E95BEA
:10262000FF4FE081EA93A7DF1F5FDDCF00E0FE01EF
:10263000EC5BFF4FE0810E1710F00C946C1310E070
:102640001830C8F530E0FE01EC5BFF4FE0813E172B
:1026500080F5E32FDE01A95BBF4F0D90BC91A02D4B
:102660000E949618BF01E12FDE01AC5BBF4FAC9119
:10267000EA9FF001DB01F0E0AE0FBF1FA034E0E005
:10268000BE0739F40E9423170E948F18FA93EA9329
:1026900038DC0E94B0170E942B1BDE011496AE0F8F
:1026A000BF1FEE27A00FBE1FEC91EA9334DC3F5F03
:1026B000CACF1F5FC5CF0E948F18FA93EA93DE013D
:1026C000A95BBF4FED91FD913196FE93EE93FA9386
:1026D000EA9317DC0F5FABCF0E94841BEF962C961A
:1026E0000895A981A13011F00C94DE13EE81E13838
:1026F00011F4EAEF0FC0E03911F4EBEF0BC0E83949
:1027000011F4ECEF07C0EE3811F4EDEF03C0ED3833
:1027100011F4EEEFEE83AE81A13CA0F0A091600237
:10272000B0916102A13CE0E0BE0764F00E949A18FB
:102730003596E491E03031F00E94A7183496E49188
:10274000E03009F416C00E949A18DF01E09162029D
:10275000EF5F0E949618E4910E94A917E09163022E
:102760000E94A917E09164020E94A917E6DEE2E048
:1027700001C0E0E0E0936202AE81A13C48F00E941B
:10278000A718DF01E09162020E949618E49101C04F
:10279000EE81F0E00E94AF180E94AF180E943C1733
:1027A00011DFEE81F0E0E0936002F0936102EC81D2
:1027B000E0936302EA81E09364020AC0EE810E9422
:1027C000A917EE81FF810E94AF180E943C17FADE24
:1027D000279608951A930A9310E000E00E94EE17DE
:1027E0000E9406170E94AD17AE17BF0718F4AC8100
:1027F000A03009F02DC00E94B418EC91EA930E9419
:1028000047170E944717E0E00E94BA18EA81E85F84
:10281000AB81EA9FF001AF81B8850E949618EF83E3
:10282000F8870E94BF18A0E80E94771BEA1B0E944D
:10283000C418EA17FB0754F4E0E0EF83E887EB8164
:102840000E94F917EA0FFB1FED83FE831F5FC6CFBF
:102850000E94EE170E9406170E94AD17AE17BF0721
:1028600018F4AC81A13009F08BC00E94B418AC916F
:10287000A13E41F4E12F0E940A18EA0FFB1FA1813B
:10288000A73C09F002C009EF2FC00E94B418AC9118
:10289000A13E41F4E12F0E940A18EA0FFB1FA1811B
:1028A000A33C09F002C007EE1FC00E94B418AC910F
:1028B000A13E41F4E12F0E940A18EA0FFB1FA181FB
:1028C000A23C09F002C008EE0FC00E94B418AC91FF
:1028D000A13E41F4E12F0E940A18EA0FFB1FA181DB
:1028E000A53C09F001C009EE003099F00A930E945E
:1028F000C8180E944717E1E00E94BA181E5F0E94A4
:10290000BF180E94C418AE1BBF0BAF83B88700E08E
:1029100020C00E94B418EC91EA930E94C8180E944B
:102920004717E9850E94BA180E94B418AC91A032EA
:1029300031F4EA81E85FAB81EA9FF00102C00E94B6
:10294000BF18AF81B885F0E0AE1BBF0BAF83B8876F
:102950001F5F0E94BF18EF5F0E94C418AE17BF0729
:1029600074F40E94BF18A0E80E949F17EF83F887B5
:10297000EB810E94F917EA0FFB1FED83FE8368CFFE
:10298000E1ECF0E0E0936002F093610219810881CC
:102990002B9608950E947D1B08851985EC81FD8189
:1029A000E017F10700F12A853B85EE81FF81E217F0
:1029B000F307B0F03A932A931A930A93A2DAA0E8A5
:1029C000A09FF001A19FF00DE20FF31FAC85BD8524
:1029D000EA0FFB1FE491EA939EDA2F5F3F4FE5CFAA
:1029E0000F5F1F4FDBCF0E94841B2E960895EF9739
:1029F0002A978BE2A0E0B0E0EAECFDE10E94891B9F
:102A0000EFE1E7BBEFEFEABBE0E8E1BBEFE0E4BBFF
:102A10003BDAA6DA0E94D0180E94D518ECE00E949A
:102A2000DA18FEDA0E94D0180E94E018ECE0EA936F
:102A30000E94E5180E94E9180E94D5180E94D0183B
:102A4000EBE0F0E0FA93EA930E94E5180E94F31895
:102A5000E0E1F0E0FA93EA93FA93EA930E94FD181A
:102A60000E940B190E9410190E9410190E940B1944
:102A70000E9415190E9418170E9418170E94FD182D
:102A80000E941B190E9420190E9425190E942A19D0
:102A90000E9415190E941B190E94D518E4E1F0E06C
:102AA0000E942F190E94F318E8E0F0E0FA93EA93ED
:102AB0000E9436190E942A19E0E0EA93E1E0EA93C5
:102AC000D3DB0E9420190E942019E4E4F0E00E9468
:102AD0003D190E942F19C8DBECE0F0E0FA93EA936D
:102AE000FA93EA93E2E4F0E0FA93EA93EEE2F0E09C
:102AF0000E942F19B9DBEEE0F0E0FA93EA93FA9323
:102B0000EA930E942317ECE2F0E00E942F19ACDB5D
:102B10000E944219E9E4F0E0FA93EA93EDE0F0E074
:102B2000FA93EA93EDE5F0E0FA93EA93E1E2F0E05C
:102B3000FA93EA93E7E5F0E0FA93EA93EBE1F0E049
:102B4000FA93EA93EBE6F0E0FA93EA93EFE2F0E02F
:102B5000FA93EA930E94E518A4DB0E9442190E94AE
:102B60000B190E942019E3E5F0E0FA93EA930E9422
:102B70002A19E4E10E94DA18D2DB0E9442190E946D
:102B800020190E9410190E944A190E944D190E9492
:102B900052190E9457190E942519E4E1F0E0FA93B6
:102BA000EA93EBE00E94DA18E9DB0E9442190E94E6
:102BB00020190E9410190E944A190E944D190E9462
:102BC0000B19EEE1F0E00E9436190E945719EBE074
:102BD0000E94DA18D3DB0E9420190E9410190E946B
:102BE0004A190E944D19E3E2F0E00E945C19EDE2FF
:102BF000F0E00E945C19EBE00E94DA18BFDB0E9453
:102C00000B19EEE1F0E00E9436190E945719EBE033
:102C1000EA930E9452190E941019E8E7F0E00E941E
:102C20003D19FA93EA93E0E30E94DA18A7DBEAE59C
:102C3000F0E00E945C190E9425190E945719EBE0F0
:102C4000EA930E9452190E941019E8E7F0E00E94EE
:102C50003D19FA93EA93E0E30E94DA188FDB0E94B1
:102C600042190E941B190E945F19ECE1F0E00E94DA
:102C70002F19D0DB0E941B190E945F19EEE0F0E0D3
:102C80000E942F19C7DB0E941B19E4E0F0E0FA93C1
:102C9000EA93E7E3F0E00E942F19DDD9E5E2F0E0E6
:102CA000FA93EA930E945F19E5E30E94DA180E9402
:102CB000E918FE01B3960E9464190E941817E0E01B
:102CC0000E94DA1887DDFE017796FA93EA93E8E22C
:102CD000F0E0FA93EA930E94D018E0E00E94DA183C
:102CE00079DD0E946719D6D80E946719CDD80E9455
:102CF0006719E0E0EA9319D9FE017196FA93EA9315
:102D0000E8E7F0E00E946419E1E00E94DA1862DD71
:102D1000FE01FA93EA93E8E7F0E0FA93EA93E6E03B
:102D2000F0E0FA93EA93E1E00E94DA1853DD20E044
:102D300030E02430E0E03E075CF40E946D190E9410
:102D400018170E9475190E947A192F5F3F4FF1CF13
:102D50000E94821923E030E033235AF00E946D195B
:102D60000E9418170E9475190E947A19215030404C
:102D7000F3CF0E948219E4E5F0E00E9464190E94FA
:102D800018170E94751906DE20E030E02034E0E0DC
:102D90003E074CF42A9386D80E9425190E94881970
:102DA0002F5F3F4FF3CFC3CFFFCFE991F99130971A
:102DB0001AF4E095F09531960895A991B991E991A9
:102DC000F991AE17BF070CF0FD010895A991B991D3
:102DD000E991F991EA17FB070CF0FD010895A9911B
:102DE000B991EE27002460E8E894162E1694079413
:102DF0001E2A1EF0A015B10518F0A019B109E62B86
:102E0000B7FBAA0FBB1F669580F70895A991B991EA
:102E1000EE27FF276D91662311F03196FBCF0895C1
:102E2000FA93EA930C945A0FFA93EA930C94760F60
:102E3000E0E0F0E0FA93EA930895EC81F0E0FA9391
:102E4000EA930C94810FE0E4F0E0FA93EA9308959A
:102E5000EC81FD81FA93EA93EC81FD810E94321BA3
:102E6000FA93EA930C94810FEA81FB81E770F0708A
:102E7000A1E00E94231B0895FA93EA93EE81EA935E
:102E80000895EB81EF5FF0E00E0F1F1F0895E885B6
:102E9000F985FA93EA930895EA89FB89AE89BF8997
:102EA000EA17FB070895EE89FF89FA93EA930895DC
:102EB000EC89FD89FA93EA930E94E616FA93EA9365
:102EC0000895EA1BFB0BFA93EA930C94D516FA9338
:102ED000EA93ED89EA93ED89EA930C942B10EA9337
:102EE000EC89EA930C941010E32FF0E00895662724
:102EF00077270E94FA190895EE89FF89AA85BB8574
:102F00008C859D85F4DF0E94841A0895AE81BF816F
:102F1000888599850E94341A0895EA89FB89A12F32
:102F2000B0E0EA17FB070895E12FE150F0E0FA93D3
:102F3000EA930895EF5FF0E0FA93EA9308950E9410
:102F4000771BEA1BF0E00895E02FF0E0FA93EA9394
:102F50000895F0E0FA93EA930895A12FB0E0089560
:102F6000E12FF0E00895EA89FB89FA93EA93089546
:102F7000AC85BD85E885F985EA1BFB0BEA93EE81FC
:102F8000EA93EE81EA930E94101081CFAA85BB8557
:102F9000EE81FF81EA1BFB0B0895FA93EA93EF8120
:102FA000EA93EF81EA930C942B10FA93EA936FCF94
:102FB000E889F989FA93EA930895E985EA93E9851E
:102FC000EA930C943411EC85FD85FA93EA93089505
:102FD000E985EA93E985EA930C944510E985FA8539
:102FE000FA93EA930895EF81EA93EF81EA930C94C0
:102FF0002B10AD81BE81F0E008950E94741BEA1B86
:10300000FB0B3196FA93EA930895E885A985BA8572
:10301000F0E0F3CFA985BA85F0E00895AE0FBF1FA9
:103020001197BA93AA930895EA93EA85EA93EA85F9
:10303000EA930C948F11ED85FE85FA93EA93089537
:10304000EE85FF85FA93EA930895AE1BBF0BBA9302
:10305000AA930895E12FAA85BB85F0E0EA0FFB1F34
:10306000FA93EA93E02FAA85BB85F0E00895EA0F72
:10307000FB1FFA93EA93E885EA930C94EE0FE12F95
:10308000AA85BB85F0E0E1CFE02FAA85BB85F0E003
:103090000895E32FE01B5DCFE12FE150AA85BB85AA
:1030A000F0E0EA0FFB1FFA93EA931ECFFA93EA933C
:1030B0004BCF0E94E616AA85BB85EA0FFB1F31960F
:1030C000FA93EA93E6CF0E94D516FA93EA93EB853A
:1030D000EA93EB85EA930C942B100E94DD16AA85E7
:1030E000BB85B3CFE12FE150AA85BB85F0E0ADCF22
:1030F000E12FE150AA85BB85F0E0EA0FFB1FFA93B0
:10310000EA930895EB85EA93EB85EA930C942B10F0
:10311000AE81BF81EE27A10FBE1FEC910895FE0185
:10312000E95BFF4F0190F081E02D0895F0E0EA0F98
:10313000FB1F0895E0916002F0916102E15CF040B4
:10314000A6E0B0E00E944E1BEC5AF34F0895EE81CA
:10315000E15CA6E0EA9FF001EC5AF34F0895FA9380
:10316000EA93EE81FF810895A985BA85EE27A10F24
:10317000BE1F0895EA93E985EA930C947113EB81DD
:10318000EE0FEE0FEE0F0895AF81B885F0E00895D1
:10319000EC81EE0FEE0FEE0FA885B985F0E055CF6C
:1031A000E3E0F0E0FA93EA930895E5E0F0E0FA93C3
:1031B000EA930895EA93E0E0EA93E1E0EA93089560
:1031C000E7E0F0E0FA93EA930895E1E0EA93EA9306
:1031D00008950E941010E0EDF7E0FA93EA930E9440
:1031E00088190C94B00F0E942B10E0EDF7E0FA93D1
:1031F000EA930E9488190C94B00FEFE7F0E0FA937D
:10320000EA93EFE3F0E0FA93EA93E0E0EA93E1E097
:10321000EA930C944510ECE3F0E0FA93EA930895F6
:10322000EFE0F0E0FA93EA930895E0E0EA93E1E05A
:10323000EA930C944510EFE3F0E0FA93EA930895D3
:10324000EAE0F0E0FA93EA930895E4E6F0E0FA9316
:10325000EA930895E2E3F0E0FA93EA930895FA938B
:10326000EA93E0E0EA93E1E0EA930895FA93EA93BF
:10327000E6E4F0E0FA93EA930895FA93EA93E0E340
:10328000F0E00895E0EDF7E0FA93EA930E948819E0
:103290000C94B00FEEE1F0E0F0CFFA93EA93E0E3A4
:1032A000EA930895EEE6F0E0FA93EA930895EEE1EA
:1032B000F0E0FA93EA930895FA93EA93F8CFEFE1F6
:1032C000F0E0FA93EA930895FA93EA93B1CDE0ED32
:1032D000F7E0FA93EA930C948819F9010E942D1BE8
:1032E000FE2FE0E0E853F24FEFCFEFE7F0E0FA9384
:1032F000EA9366CF0E94CA14EAEFF0E0FA93EA93E9
:103300000C948819EAEFF0E0FA93EA930C94881988
:10331000E991F991309639F080ED97E00197F1F756
:10332000A8953197C9F70895552342F4503811F400
:10333000E0FF04C03196691F791F6BF050E85727F2
:1033400011F45F93CFC05F3F31F0660F000C5795CB
:103350006795752F08955F9300200AF0CFC0C8C00D
:1033600050E8192E1522880F991F9527550F87951C
:1033700050E8072E0522660F771F7527550F6795B2
:103380000895689401C0E8945F93F2DF703818F0F4
:103390007F3F08F4A7C056E1571BAAF45195583057
:1033A0000EF4593030F0EFEFFFEF6FEF7FE777F972
:1033B0001AC077275523B9F0EE0FFF1F661F771F3E
:1033C0005A95D1F710C07727583028F0EF2FF62FF5
:1033D000672F5850F9CF552331F076956795F795BB
:1033E000E7955A95D1F700200AF425D15F91089509
:1033F000689401C0E894309760407040B1F00024B8
:1034000026F0772312F4009416D1172E7EE11120B6
:1034100032F07A95EE0FFF1F661F111CF9CFEF2FC8
:10342000F62F612D5F938ADF5F9108954F93AF016F
:10343000FD01DA01AB01BC01CA01402D012C142EA3
:103440004F910895EA0FFB1F681F0895E095F095CE
:103450006095EF5FFF4F6F4F08955F9381DF903866
:1034600071F150E8152604C05F937ADF903839F186
:10347000703821F1572F591B2BF112F4D7DFFACFF7
:10348000583118F0AA27BB278827583028F0AB2FCF
:10349000B82F88275850F9CF552329F08695B7952E
:1034A000A7955A95D9F7502D512572F0CBDF38F4F6
:1034B0006795F795E795739513F420C0B7DF3EDF66
:1034C0005F910895D8F7FBCFEA1BFB0B680B51F017
:1034D00010F40094BBDF662392F3EE0FFF1F661F0C
:1034E0007A95CBF7EE27FF27662777275F91089518
:1034F000EFEFFFEF6FE77FEF5F910895EFEFFFEFE3
:103500006FE77FE75F9108955F932ADF703851F38B
:10351000903841F301240894791F23F41CF3002010
:103520003AF3ECCF0F921F932F933F934F931127B2
:1035300022279927689FA0018F9F302D410D591F89
:103540006B9F300D411D591F8E9F27D0BF9F25D0E7
:103550006A9F23D0BE9F1DD0AF9F1BD0AE9F110D81
:10356000291F391F491F591FE32FF42F652F522F91
:103570004F913F912F911F910F9066232AF0550F85
:10358000EE1FFF1F661F02C073954BF2CDDE5F91E9
:103590000895100D211D391F02C0200D311D491F36
:1035A000591F08955F93DCDE703821F411200AF46E
:1035B0009FCFA4CF903809F495CF01240894970B9E
:1035C0001BF4D4F30020F3CF792F1F932F933F9355
:1035D0004F9311241127222733274427552790E2A0
:1035E000AE17BF078607410730F0AE1BBF0B860B37
:1035F000410B089401C08894551F221F331F111CD2
:10360000AA1FBB1F881F441F9A9551F7F901612D0E
:103610004F913F912F911F91662332F0550FEE1F6E
:10362000FF1F661F7A9543F27FDE5F910895F19543
:10363000E195F0400895F09560957095E195FF4F04
:103640006F4F7F4F0895EE230E2EEA2F19F0EE0FE5
:103650000A94E9F70895EE0FFF1FEE0FFF1FEE0F1C
:10366000FF1F0895F695E795F695E795F695E7958A
:103670000895FE2FFF0FFF0B6F2F7F2F08956F2FE1
:10368000660F660B762F08958B2F880F880B982F67
:103690000895EA17E1E008F0EE270895FA9FF02D6B
:1036A000EB9FF00DEA9FE02DF10D089504D0F6DFB9
:1036B0000EF4BDDF0895E894F7FF02C0B8DF689408
:1036C000B7FF06C0A095B095119600F8039400FAD4
:1036D0000895689401C0E89401D08DDE182E862FDD
:1036E000612D192E972F712D1B2EBF2FF12D1A2E04
:1036F000AE2FE12D08955A934A933A932A931A9341
:103700000A9308955D814C813B812A81198108814A
:103710000895AC0FBD1F05900D928A95E1F70895AD
:00000001FF
