:020000040000FA
:10000000D03C0010E9010000F1010000F301000004
:10001000F5010000F7010000F901000000000000F8
:10002000000000000000000000000000FB010000D4
:10003000FD01000000000000FF01000001020000BF
:10004000030200000302000003020000030200009C
:10005000030200000302000003020000030200008C
:10006000030200000302000003020000030200007C
:10007000030200000302000003020000030200006C
:10008000030200000302000003020000030200005C
:10009000030200000302000003020000030200004C
:1000A000030200000302000003020000030200003C
:1000B000030200000302000003020000030200002C
:1000C00003020000030200000302000000F002F837
:1000D00000F060F80AA090E8000C82448344AAF182
:1000E0000107DA4501D100F055F8AFF2090EBAE880
:1000F0000F0013F0010F18BFFB1A43F0010318475C
:10010000402D0000602D000010F8013B0A4413F060
:10011000030408BF10F8014B1D1108BF10F8015B64
:10012000641E05D010F8016B641E01F8016BF9D153
:10013000002D15D010F8014B03F00C030C2BA1EB94
:1001400004040ABF10F8013BA4EB8314A4EB0324BE
:1001500005F1010314F8016B5B1E01F8016BF9D581
:10016000914238BF10F8013BD1D3704700230024DF
:1001700000250026103A28BF78C1FBD8520728BFB7
:1001800030C148BF0B6070471FB500F060F81FBD5D
:1001900010B510BD00F067F81146FFF7F5FF00F04D
:1001A000A7FF00F085F803B4FFF7F2FF03BC00F0EF
:1001B00089F800000B49D1F800C04A685CF8043B9C
:1001C0001068184442F8040B8C4528BFA1F1DC0CE0
:1001D0008A4228BFA1F1DC02C1F800C04A6020F0C9
:1001E00000407047683A00100948804709480047B6
:1001F000FEE7FEE7FEE7FEE7FEE7FEE7FEE7FEE7D7
:10020000FEE7FEE704480549034A054B7047000036
:1002100001030000CD000000D03A0010D03C0010D7
:10022000D03A00100B4910B5A1F17C020A4CC2E98A
:100230003712372106E000EB104342F82130074B1C
:1002400000FB03400B1EA1F10101F4DC10BD0120F5
:10025000E8E70000083A0010E119D666CD0D01006C
:10026000704770477047754600F028F8AE460500A5
:100270006946534620F00700854618B020B5FFF7C1
:10028000C1FFBDE820404FF000064FF000074FF0DF
:1002900000084FF0000B21F00701AC46ACE8C009A4
:1002A000ACE8C009ACE8C009ACE8C0098D467047AD
:1002B0000446AFF300802046FFF775FF0048704703
:1002C000703A001001491820ABBEFEE7260002007C
:1002D000704770B504460D46E908204600F000FE60
:1002E000E0B200F031FD0646304670BD02468A425B
:1002F00001DD012070470020FCE70000FFFFFFFF49
:1003000020204B4908604B48D0F8A00100F02000A5
:1003100030B100BF4648006800F040000028F9D026
:10032000032043499C39086000204249C1F8A801D4
:100330003F490C31086001203D49943908603E482E
:100340003C4984310860AA203A498C310860552024
:1003500008600120374980310860AA2035498C3176
:10036000086055203349C1F88C0000BF31488830FF
:10037000006800F080600028F8D003202D4980310B
:100380000860AA202B49C1F88C00552029498C31DE
:10039000086000BF27488830006800F04070B0F166
:1003A000407FF7D123202349A4310860AA202149A6
:1003B000C1F8AC0055201F49AC31086001201D492F
:1003C000A0310860AA201B49AC31086055201949AA
:1003D000C1F8AC0000BF1748A830006800F4806086
:1003E0000028F8D003201349A0310860AA20114941
:1003F000C1F8AC0055200F49AC31086000BF0D4872
:10040000A830006800F44070B0F5407FF7D10B4889
:100410000849C431086000200649C1F8C8010846EF
:10042000006820F4704040F44050086070470000BD
:10043000A0C10F4000C00F4063000500DE87280404
:100440002DE9F04706460F4690469946DDF820A074
:1004500044460FE03D460AE02146284600F040FDB4
:10046000802101FB0451705C00F0CCFC6D1C4D45FB
:10047000F2D9641C5445EDD9BDE8F0872DE9FF4F52
:1004800085B006460F469246DDF848800AF0FF091F
:10049000002490E00AFB0AF104FB141001F079FF3C
:1004A000CDE9000101F0A8FCCDE9020101F044FF13
:1004B000C5B279193019424601F01CFB791B30197D
:1004C000424601F017FB7919301B424601F012FB3E
:1004D000791B301B424601F00DFBA9EB05000028FB
:1004E00001DB014600E04142012961DD2946484621
:1004F00000F0BCFF3844401CA9EB050BCDF8008090
:100500000390BBF1000F01DB594601E0CBF1000184
:100510000A46611E8819089B039901F043FE29468B
:100520004846FFF7E3FE381AA9EB050BCDF800802B
:100530000390BBF1000F01DB594601E0CBF1000154
:100540000A46611E8819089B039901F02BFE294673
:10055000484600F08BFF3844401CA9EB050BCDF852
:1005600000800390BBF1000F01DB594601E0CBF1A5
:1005700000010A46611E701A089B039901F012FEE1
:1005800029464846FFF7B2FE381AA9EB050BCDF80D
:1005900000800390BBF1000F01DB594601E0CBF175
:1005A00000010A46611E701A089B039901F0FAFDCA
:1005B000A946601CC4B25445FFF46CAF611E881993
:1005C000CDF800802A463946089B01F0EBFD791BE7
:1005D000621E9019CDF800802A46089B01F0E2FDCA
:1005E000611E701ACDF800802A463946089B01F03A
:1005F000D9FD791B621EB01ACDF800802A46089BEF
:1006000001F0D0FD09B0BDE8F08F2DE9FE4F824624
:100610008B4616461F46DDE90C89DDE910450020B2
:100620003B4632465946CDE900450290504601F01E
:100630001BFB0020CDE90045029049464046DDE91C
:100640000E2301F011FB4B46424659465046CDE978
:10065000004500F067FC4B46CDE900455946304661
:100660000E9A00F05FFCCDE90045424639465046FF
:100670000F9B00F057FCCDE9004539463046DDE9D7
:100680000E2300F04FFCBDE8FE8F02214FF0402208
:1006900051600021D16046F2C11141439161FF21B7
:1006A0001160042151610121516000BF4FF04021D0
:1006B000496801F001010029F8D1704702214FF08B
:1006C000402251600021D16000EBC00101EB00111C
:1006D0009161FF211160042151610121516000BF2E
:1006E0004FF04021496801F001010029F8D170471D
:1006F00001461F2909DC0846C1B22348406901228E
:100700008A401040C840C0B2704720290CDB3F2906
:100710000ADCA1F12000C1B21B48406B01228A40D3
:100720001040C840C0B2EFE740290CDB5F290ADC6B
:10073000A1F14000C1B21448426D01208840104030
:10074000C840C0B2E0E760290CDB7F290ADCA1F1D8
:100750006000C1B20C48406F01228A401040C8407E
:10076000C0B2D1E780290DDB9F290BDCA1F180000D
:10077000C1B2054894300268012088401040C8404A
:10078000C0B2C1E70220BFE700C009201F280CDC6F
:100790000246D0B221B101228240294B9A614DE03C
:1007A00001228240264BDA6148E020280FDB3F28F7
:1007B0000DDCA0F12002D0B221B101228240204BF9
:1007C0009A633BE0012282401D4BDA6336E0402809
:1007D0000FDB5F280DDCA0F14002D0B221B1012275
:1007E0008240174B9A6529E001228240144BDA655A
:1007F00024E060280FDB7F280DDCA0F16002D0B27E
:1008000021B1012282400E4B9A6717E001228240FB
:100810000B4BDA6712E0802810DB9F280EDCA0F17A
:100820008002D0B229B101228240054B98331A6070
:1008300004E001228240024B9C331A6070470000A2
:1008400000C00920F0B503460026002018E000246F
:1008500012E01F5C7F101F5401F001051DB11F5CE9
:1008600047F080071F54771CFFB23E46974201D1E4
:1008700049100026671CFCB2082CEADB471CF8B2C2
:100880009042E4DBF0BD000010B518480078FFF797
:100890002FFFC40116480078FFF72AFF44EA8014AE
:1008A00014480078FFF724FF44EA40141248007807
:1008B000FFF71EFF44EA001410480078FFF718FF06
:1008C00044EAC0040E480078FFF712FF44EA8004AF
:1008D0000C480078FFF70CFF44EA40040A4800780F
:1008E000FFF706FF0443E0B210BD00007B090010D3
:1008F0007A090010790900107809001077090010B2
:1009000076090010750900107409001010B5002454
:1009100003E0E0B200F004F8641C082CF9DB10BD21
:1009200070B504462146002000F0DAFA2146402046
:1009300000F0D6FA012106480078FFF727FF0025CE
:1009400003E0002000F05EFA6D1C412DF9DB70BD64
:100950007E0900102DE9F05F04460D4616461F463D
:10096000DDE90CABDDE90A8945480770454880F8A8
:100970000080454880F80090444880F800A0444832
:1009800080F800B043490E98087043490F980870EA
:100990004249109808704248057042480670424922
:1009A000119808704149129808704148047001225A
:1009B0000221007800F05EFD012202213848007813
:1009C00000F058FD012202213648007800F052FD67
:1009D000012202212A48007800F04CFD0122022168
:1009E0002848007800F046FD0122022126480078C0
:1009F00000F040FD012202212448007800F03AFD79
:100A0000012202212248007800F034FD0122022157
:100A10002048007800F02EFD012202211E480078B7
:100A200000F028FD012202211C48007800F022FD80
:100A3000012202211C48007800F01CFD0122022145
:100A40001A48007800F016FD012117480078FFF7DA
:100A50009DFE012115480078FFF798FE00211448FB
:100A60000078FFF793FE00210D480078FFF78EFE17
:100A70003F2001F07DF901F081FBBDE8F09F00000F
:100A8000740900107509001076090010770900102C
:100A900078090010790900107A0900107B0900100C
:100AA0007C0900107D0900107E0900107F090010EC
:100AB000800900102DE9F04F8BB004460D46914699
:100AC0009A46DDF854B00AAF00203870022D00D2EB
:100AD0000A2500BFA046B4FBF5F405FB1480C6B29E
:100AE0000A2E02DA06F1300001E006F13700C1B249
:100AF000781E07460170002CECD1169840B2CDE963
:100B000000B0524649463846149B00F087F80BB0B7
:100B1000BDE8F08F2DE9F04104460D4616461F460C
:100B2000DDF81880012F67D18E2C10D004DC812CC9
:100B300007D08D2C0FD10CE0902C04D0982C0AD12A
:100B400003E0FA2407E0FB2405E0FC2403E0FD2495
:100B500001E0FE2400BF00BFC12C2BDB2A48006847
:100B6000C12827DB28480068C13800EB400027492E
:100B700001EB40004079E8B1A4F1C10000EB400076
:100B800001EB40000079A8B11F490968C13901EBA8
:100B900041011E4A02EB41021D490978491C505C83
:100BA0001C490A781C49097800F0F4FF0220184912
:100BB000087002E0002016490870C12C0FDBA4F178
:100BC000C10101EB4101114A02EB4101104A1278C7
:100BD000885C43463246294600F0F8FF05E043466C
:100BE00032462946204600F0F1FF074804600A49D2
:100BF0000D7008490E7005E04346324629462046EE
:100C000000F0E4FFBDE8F081840900100008001046
:100C1000880900108A090010890900102DE9F84F91
:100C200006460F4690469946DDE90A5A0024A34637
:100C300013E00095305D002342463946FFF76AFF16
:100C40000AF1080000FB0577E800C0F18000B84217
:100C500001DA0027A844601CC4B2304601F082FAD1
:100C6000A04202DDB9F1000FE3D058E0305DE12889
:100C700006D130194078C72802D14FF0F90B1CE09B
:100C8000305DE12806D130194078C32802D14FF0F9
:100C9000E70B12E0305DE12806D130194078C22818
:100CA00002D14FF0E80B08E0305DE12805D13019A2
:100CB0004078C52801D14FF0E90BBBF1000F10D0EF
:100CC000082000FB15710123424658460095FFF7A6
:100CD00021FFA01CC4B2082000FB15774FF0000BC9
:100CE00015E0082202FB15710095305D4B46424627
:100CF000FFF710FF305D202804D10AF1080000FB47
:100D0000157702E0082000FB1577601CC4B2E800EC
:100D1000401CB84203DDE800C0F18007A84430461B
:100D200001F020FAA04204DDB9F1000F01D001204A
:100D300000E00020012899D0C12002490860BDE8E8
:100D4000F88F00008409001070B5044600250020CB
:100D500000F0CAFF012126480078FFF717FD0121A6
:100D600024480078FFF712FD402C01DA012000E052
:100D70000020014620480078FFF708FD1E48007853
:100D8000FFF7B6FC08B9012000E000200646314616
:100D90001A480078FFF7FAFC0120FFF78FFC0121C9
:100DA00017480078FFF7F2FC0120FFF787FC0021CD
:100DB00013480078FFF7EAFC1420FFF77FFC0121BD
:100DC0000F480078FFF7E2FC0120FFF777FCFFF700
:100DD0005BFD054600210A480078FFF7D7FC01209B
:100DE000FFF76CFC012000F07FFF284670BD00007B
:100DF0007C090010800900107E0900107F09001096
:100E00007D09001010B50446012109480078FFF75C
:100E1000BDFC002107480078FFF7B8FC204600F031
:100E2000A7FF0120FFF74AFC01F0A8F910BD000060
:100E3000800900107C09001070B505460021174894
:100E40000078FFF7A3FC002115480078FFF79EFC0F
:100E5000402D0BD2012113480078FFF797FC0021A9
:100E600011480078FFF792FCECB20CE000210D482D
:100E70000078FFF78BFC01210B480078FFF786FC18
:100E8000A5F14000C4B204F07F0040F040042046C9
:100E900000F06EFF01F072F970BD000080090010D3
:100EA0007C0900107E0900107F09001070B504460F
:100EB000002109480078FFF769FC00210748007805
:100EC000FFF764FC04F0BF0040F0B805284600F0CE
:100ED0004FFF01F053F970BD800900107C0900102C
:100EE00070B505460C462846FFF7A6FF2046FFF7DB
:100EF000DDFF70BD2DE9F0470446884616461F46C3
:100F0000DDF82090254607E04A464146284600F095
:100F1000F1FD781CC0B205443019A842F4D8BDE8F0
:100F2000F08700002DE9F04F8DB006468946144643
:100F30009A46DDF85CB0A64218D10AF0FF0109F02C
:100F4000FF0000F093FACDF800B00690AAEB09007C
:100F50000790002801DB079801E007984042421CF7
:100F60003046169B069901F01DF9BBE0D14516D11C
:100F7000E1B2F0B200F07AFACDF800B00690A01B12
:100F80000790002801DB079801E007984042401CC9
:100F9000C2B24946169B0698FFF7ACFFA2E0A642F4
:100FA00009D9F0B20B9026460B9C09F0FF000B907C
:100FB000D146DDF82CA0A01B01F0ECFD0790AAEBB8
:100FC000090001F0CFFD0690079901F0E9FC0990B6
:100FD000304601F0DFFD0590099901F0EFFD079023
:100FE000484601F0D7FD0690079901F0B3FE08903E
:100FF000304601F0CFFD0590099901F0DFFD069024
:10100000089901F06BFC079001F08CFD00F0FF08DF
:10101000CDF82880DDF82880701CC7B25BE0384628
:1010200001F0B8FD0190099901F0C8FD02900899FE
:1010300001F054FC039001F025FC00222B4BCDE97C
:10104000040101F0C5F8CDE9060101F075F9C5B25A
:10105000A5EB080040B201280CDDA5EB08035A1EE1
:1010600008F10103D9B2781ECDF800B0169B01F04B
:1010700099F80FE0A8EB050040B201280ADDA8EBC3
:1010800005035A1E6B1CD9B2781ECDF800B0169B12
:1010900001F088F8A7420BD10A98A84208D1A01BFA
:1010A000C2B2002329463046CDF800B0FFF722FF38
:1010B000A8460A98A84200D10BE0B81BC2B2002390
:1010C000CDF800B030460A99FFF714FF3E460A9566
:1010D00000BF781CC7B2A742A1D95A465146204644
:1010E00000F008FD0DB0BDE8F08F00000000E03F0B
:1010F0008AB00F200B210A220923CDE90532CDE960
:1011000007100820072106220523CDE90132CDE989
:101110000310042003230222012100900020FFF786
:1011200019FCFFF7F3FB01220021084600F0E2FC66
:1011300000210846FFF7CDF8064600200221CDE940
:101140000001034614220A2102903046FFF7B2FC48
:101150004FF47A70FFF799FAFFF7D8FB00200121CE
:10116000CDE9000132231A460146029000F07CFDD1
:1011700001200022CDE9002032236E2200210290BE
:101180003C2000F071FD4FF47A70FFF77EFAFFF714
:10119000BDFB00241AE0FFF70DF8461CF01706EB24
:1011A000D0104016A0F10108FFF704F8471CF8170B
:1011B00007EB10200016A0F1010901224146484624
:1011C00000F098FC0A20FFF760FA641CB4F57A7FFF
:1011D000E1DB4FF47A70FFF758FAFFF797FB002432
:1011E0000EE000200221CDE90001034602460A215B
:1011F00002902046FFF75EFC0A20FFF746FA641CC7
:10120000B4F57A7FEDDB4FF47A70FFF73EFAFFF723
:101210007DFB00240CE0012004F10A0100235A2286
:1012200000901420FFF766FE6420FFF72EFA241DBD
:101230002C2CF0DB4FF47A70FFF727FAFFF766FBF0
:1012400000240CE00120009004F10A000023372262
:10125000052100F0A7FF6420FFF717FA241D6E2C6C
:10126000F0DB4FF47A70FFF710FAFFF74FFB002422
:101270000CE00120002123463F22CDE90010084662
:10128000FFF750FE6420FFF700FAA41C402CF0DBAF
:1012900000240CE0012000213F232246CDE900106C
:1012A0000846FFF73FFE6420FFF7EFF9A41C402C2F
:1012B000F0DB4FF47A70FFF7E8F9FFF727FB012026
:1012C00000213C220292CDE90321059028200090C4
:1012D0001E231A460A2101900846FFF796F94FF49B
:1012E0007A70FFF7D2F9FFF711FB012000231E22CD
:1012F000202100903220FFF7C1F84FF47A70FFF7F9
:10130000C4F9FFF703FB0020012103460246CDE9A3
:101310000010014650A0FFF781FC4FF47A70FFF7F0
:10132000B4F9FFF7F3FA212569E0A5F121001028AF
:101330000ADA01200090A5F12100C100012300225A
:101340002846FFF7E7FB58E0A5F1210020280ADA3C
:1013500001200090A5F13100C10001230922284697
:10136000FFF7D8FB49E0A5F1210030280ADA012077
:101370000090A5F14100C100012312222846FFF789
:10138000C9FB3AE0A5F1210040280ADA01200090CB
:10139000A5F15100C10001231B222846FFF7BAFB2B
:1013A0002BE0A5F1210050280ADA01200090A5F1D8
:1013B0006100C100012324222846FFF7ABFB1CE09B
:1013C000A5F1210060280ADA01200090A5F1710042
:1013D000C10001232D222846FFF79CFB0DE0A5F15B
:1013E0002100702809DA01200090A5F18100C100D8
:1013F000012336222846FFF78DFB681CC5B27E2DDF
:1014000093DD4FF47A70FFF740F900240EE00720D7
:101410001449009001EB84207F2300221146FFF73E
:101420000FF840F6B830FFF730F9641C032CEEDB00
:1014300011E000240DE007200B49009001EB84200F
:101440007F2300221146FEF7FBFF6420FFF71DF902
:10145000641C032CEFDDECE7444D463331332E4959
:10146000520000008B0900108B2100100246012061
:101470007047000030B51F287EDC0346D8B23AB171
:10148000FA4B1C68012383401C43F84B1C6006E0A8
:10149000F64B1B6801248440A343F44C236031B114
:1014A00001291AD0022942D0032966D16CE00F2805
:1014B00008DCEF4B1B6C45000324AC40A343EC4C11
:1014C000236409E0EA4B5B6CA0F11004650003247F
:1014D000AC40A343E64C63646EE00F2811DCE44BA0
:1014E0001B6C44000125A5402B43E14C236423469B
:1014F0001B6C4400641C0125A540AB43DC4C2364F9
:1015000014E0DB4B5B6CA0F1100464000125A540E6
:101510002B43D74C636423465B6CA0F1100464003A
:10152000641C0125A540AB43D14C636444E00F2803
:1015300011DCCF4B1B6C44000125A540AB43CC4CC8
:10154000236423461B6C4400641C0125A5402B43E7
:10155000C74C236417E0C64B5B6CA0F11004640019
:101560000125A540AB43C24C636423465B6CA0F1EC
:1015700010046400641C01E01FE01BE00125A5408D
:101580002B43BB4C636417E00F2808DCB84B1B6C83
:1015900045000324AC402343B54C236409E0B44B1D
:1015A0005B6CA0F1100465000324AC402343B04CF5
:1015B000636401E000BFFEE796E2202870DB3F286D
:1015C0006EDCA0F12003D8B23AB1A84B1B6A01240B
:1015D00084402343A54C236206E0A44B1C6A0123EC
:1015E00083409C43A14B1C6231B101291AD00229CE
:1015F00042D0032976D16AE00F2808DC9C4B9B6C13
:1016000045000324AC40A343994CA36409E0984BE4
:10161000DB6CA0F1100465000324AC40A343944CA0
:10162000E3646DE00F2811DC914B9B6C44000125B5
:10163000A5402B438E4CA36423469B6C4400641C42
:101640000125A540AB438A4CA36414E0884BDB6CB6
:10165000A0F1100464000125A5402B43844CE364F1
:101660002346DB6CA0F110046400641C0125A54036
:10167000AB437F4CE36443E00F2812DC7C4B9B6C54
:1016800044000125A540AB43794CA36423469B6CE1
:101690004400641C0125A5402B43754CA36415E050
:1016A0002FE0734BDB6CA0F1100464000125A54012
:1016B000AB436F4CE3642346DB6CA0F11004640081
:1016C000641C0125A5402B43694CE36418E00F28F6
:1016D00009DC674B9B6C45000324AC402343644CFE
:1016E000A3640AE00AE0624BDB6CA0F11004650021
:1016F0000324AC4023435E4CE36401E000BFFEE7FB
:10170000F2E1402870DB5F286EDCA0F14003D8B224
:101710003AB1564B1C6C012383401C43534B1C6451
:1017200006E0524B1B6C01248440A3434F4C2364BE
:1017300031B101291AD0022942D0032976D16AE0B9
:101740000F2808DC4A4B1B6D45000324AC40A34323
:10175000474C236509E0464B5B6DA0F11004650022
:101760000324AC40A343424C63656DE00F2811DCB9
:101770003F4B1B6D44000125A5402B433C4C23658A
:1017800023461B6D4400641C0125A540AB43384C27
:10179000236514E0364B5B6DA0F110046400012555
:1017A000A5402B43324C636523465B6DA0F11004CA
:1017B0006400641C0125A540AB432D4C636543E0E8
:1017C0000F2812DC2A4B1B6D44000125A540AB43BA
:1017D000274C236523461B6D4400641C0125A5404E
:1017E0002B43234C236515E02FE0214B5B6DA0F1CB
:1017F000100464000125A540AB431D4C63652346DE
:101800005B6DA0F110046400641C0125A5402B430E
:10181000174C636518E00F2809DC154B1B6D45005C
:101820000324AC402343124C23650AE00AE0104B2A
:101830005B6DA0F1100465000324AC4023430C4C05
:10184000636501E000BFFEE74EE1602875DB7F289D
:1018500073DCA0F16003D8B262B1044B1C6E0123AB
:1018600083401C43014B1C660BE0000000C00920B4
:1018700000C002409D4B1C6E012383409C439B4B48
:101880001C6631B101291AD0022942D0032976D130
:101890006AE00F2808DC964B9B6D45000324AC40A2
:1018A000A343934CA36509E0914BDB6DA0F11004B9
:1018B00065000324AC40A3438D4CE3656DE00F2825
:1018C00011DC8B4B9B6D44000125A5402B43884CBC
:1018D000A36523469B6D4400641C0125A540AB43D2
:1018E000834CA36514E0824BDB6DA0F1100464000F
:1018F0000125A5402B437E4CE3652346DB6DA0F11B
:1019000010046400641C0125A540AB43784CE365DA
:1019100043E00F2812DC764B9B6D44000125A54067
:10192000AB43734CA36523469B6D4400641C0125A7
:10193000A5402B436E4CA36515E02FE06C4BDB6D8F
:10194000A0F1100464000125A540AB43684CE36599
:101950002346DB6DA0F110046400641C0125A54042
:101960002B43634CE36518E00F2809DC604B9B6D4B
:1019700045000324AC4023435D4CA3650AE00AE024
:101980005B4BDB6DA0F1100465000324AC402343E6
:10199000574CE36501E000BFFEE7A5E0802874DB5B
:1019A0009F2872DCA0F18003D8B24AB14F4B80333C
:1019B0001C68012383401C434C4BC3F8804008E063
:1019C0004A4B80331C68012383409C43474BC3F838
:1019D000804031B101291AD0022942D0032976D1A1
:1019E0006AE00F2808DC424B1B6E45000324AC4024
:1019F000A3433F4C236609E03D4B5B6EA0F110040E
:101A000065000324AC40A343394C63666BE00F28A8
:101A100011DC374B1B6E44000125A5402B43344C91
:101A2000236623461B6E4400641C0125A540AB437E
:101A30002F4C236614E02E4B5B6EA0F11004640063
:101A40000125A5402B432A4C636623465B6EA0F11B
:101A500010046400641C0125A540AB43244C63665C
:101A600041E00F2812DC224B1B6E44000125A540EB
:101A7000AB431F4C236623461B6E4400641C0125A8
:101A8000A5402B431A4C236615E02DE0184B5B6EE6
:101A9000A0F1100464000125A540AB43144C63661B
:101AA00023465B6EA0F110046400641C0125A54070
:101AB0002B430F4C636616E00F2809DC0C4B1B6EA2
:101AC00045000324AC402343094C236608E008E0AA
:101AD000074B5B6E45000324AC402343044C636614
:101AE00001E000BFFEE700BF30BD000000C00920DC
:101AF00000C002402DE9F04105460C461646E108BB
:101B00002846FFF7EDF9012E09D1E8B2FFF71CF9DD
:101B100004F00702012191400843C7B200BF00BF93
:101B2000E1082846FFF7DCF93846FFF76BF9BDE816
:101B3000F08100002DE9F04107460025114E002FED
:101B40000DDB002408E000220F4B2846314600F050
:101B50006FFC05460E46641CBC42F4DB0DE000241D
:101B600008E00A4A0A4B2846314600F061FC054667
:101B70000E46641C7842A042F3DC28463146BDE89C
:101B8000F08100000000F03F000024409A999999EC
:101B90009999B93F2DE9F04105460E461746304662
:101BA000FFF74AF93846FFF781F9002408E00821D9
:101BB00001FB0541044A505CFFF724F9601CC4B2E4
:101BC000082CF4DBBDE8F081000000102DE9F0479F
:101BD00090B08246884616461D464046FFF72CF9CF
:101BE0003046FFF763F900240CE0082202FB0A42AA
:101BF0001C4B995C6A4602EBC4002A46FEF722FEA3
:101C0000601CC4B2082CF0DB002725E0002419E09A
:101C10004FF0000912E008EB090005FB0400402822
:101C200002D13146FFF75CF9694601EBC401C85D9A
:101C3000FFF7E8F809F1010000F0FF09A945EADB28
:101C4000601CC4B2082CE3DB701C0646014640460B
:101C5000FFF746F9781CC7B2AF42D7DB10B0BDE83A
:101C6000F0870000000000102DE9F84F0746884675
:101C700014461D46DDE90B6BDDF828A0BBF1000F13
:101C80000ED0C14609E0E01BC2B253464946384671
:101C90000096FFF72FF909F10109A945F3D920E0D2
:101CA000E01BC2B25346414638460096FFF722F980
:101CB000E01BC2B25346294638460096FFF71AF990
:101CC000A5EB0802534641463846009600F06AFAF2
:101CD000A5EB0800421C534641462046009600F002
:101CE00061FABDE8F88F000010B5044622460221D3
:101CF00017480078FFF7BEFB2246022115480078FE
:101D0000FFF7B8FB2246022113480078FFF7B2FB29
:101D10002246022111480078FFF7ACFB224602213F
:101D20000F480078FFF7A6FB224602210D480078F5
:101D3000FFF7A0FB224602210B480078FFF79AFB31
:101D40002246022109480078FFF794FB10BD0000ED
:101D50007409001075090010760900107709001049
:101D600078090010790900107A0900107B09001029
:101D700010B5044604F0010117480078FEF706FD8F
:101D800004F0020115480078FEF700FD04F004019C
:101D900013480078FEF7FAFC04F0080111480078B7
:101DA000FEF7F4FC04F010010F480078FEF7EEFC9B
:101DB00004F020010D480078FEF7E8FC04F0400133
:101DC0000B480078FEF7E2FC04F080010948007837
:101DD000FEF7DCFC10BD000074090010750900104E
:101DE00076090010770900107809001079090010B1
:101DF0007A0900107B0900102DE9F35F8EB0DDE950
:101E00000E8900210E460F460024D44D4FF0080BDA
:101E1000DA46CDE05046FFF78DFE22462B46CDE94F
:101E2000040100F005FBCDE908015046FFF782FEF2
:101E300022462B46CDE9000100F0FAFA32463B4635
:101E4000CDE9040100204FF0804100F0F1FACDE926
:101E50000201DDE9042300F0BBF9CDE90601DDE96B
:101E6000082300F0E5FA42464B46CDE90A0100F0AE
:101E700013FC00221346CDE90C0100F0D7FB7DD8FE
:101E80000FE00022B54B2046294600F0A1F9044698
:101E90000D460022B24B2046294600F0C7FB00D871
:101EA00035E05046FFF746FE22462B46CDE90401B9
:101EB00000F0BEFACDE908015046FFF73BFE22468E
:101EC0002B46CDE9000100F0B3FA32463B46CDE99E
:101ED000040100204FF0804100F0AAFACDE9020190
:101EE000DDE9042300F074F9CDE90601DDE90823FA
:101EF00000F09EFA42464B46CDE90A0100F0CCFBC9
:101F000000221346CDE90C0100F090FBB9D900BFC7
:101F10000022924B2046294600F0CAFB04460D469B
:101F20005046FFF707FE22462B46CDE9060100F09A
:101F30007FFACDE90A015046FFF7FCFD22462B4609
:101F4000CDE9020100F074FA32463B46CDE90601C4
:101F500000204FF0804100F06BFACDE90401DDE98B
:101F6000062300F035F9CDE90801DDE90A2300F088
:101F70005FFA42464B46CDE90C0100E016E000F066
:101F80008BFB804689465046FFF7D4FD22462B4600
:101F9000CDE90A0100F04CFA32463B46CDE90C018E
:101FA00000F016F906460F4600246C4DAAF1010A0E
:101FB000BAF1000F3FF72EAF4FF0000AC4E05046D1
:101FC000FFF7B8FD22462B46CDE9040100F030FAB8
:101FD000CDE908015046FFF7ADFD22462B46CDE97D
:101FE000000100F025FA32463B46CDE9040100200D
:101FF0004FF0804100F01CFACDE90201DDE9042335
:1020000000F0E6F8CDE90601DDE9082300F010FA5A
:1020100042464B46CDE90A0100F03EFB0022134642
:10202000CDE90C0100F002FB7DD807E000224B4B0C
:102030002046294600F0CCF804460D465046FFF7EE
:1020400079FD22462B46CDE9040100F0F1F9CDE9F6
:1020500008015046FFF76EFD22462B46CDE90001F0
:1020600000F0E6F932463B46CDE9040100204FF08E
:10207000804100F0DDF9CDE90201DDE9042300F043
:10208000A7F8CDE90601DDE9082300F0D1F94246C1
:102090004B46CDE90A0100F0FFFA00221346CDE9D4
:1020A0000C0100F0C3FAC1D900222C4B204629466E
:1020B00000F0FEFA04460D465046FFF73BFD22466F
:1020C0002B46CDE9060100F0B3F9CDE90A015046EF
:1020D000FFF730FD22462B46CDE9020100F0A8F9BA
:1020E00032463B46CDE9060100204FF0804100F02A
:1020F0009FF9CDE90401DDE9062300F069F8CDE997
:102100000801DDE90A2300F093F942464B46CDE988
:102110000C0100F0C1FA804689465046FFF70AFDDF
:1021200022462B4600E00DE0CDE90A0100F080F9DF
:1021300032463B46CDE90C0100F04AF806460F4610
:102140000024064DAAF1010ACBF1000050457FF7AB
:1021500036AF3046394610B0BDE8F09F0000F03F82
:10216000000024400246002101E0481CC1B2505C3E
:102170000028FAD1481CC0B27047000010B50121F8
:1021800007480078FEF702FB0320FEF797FA0021CC
:1021900003480078FEF7FAFA0320FEF78FFA10BD25
:1021A0007D0900102DE9F04780460C4616461F4673
:1021B000DDF82090254606E04A4629464046FFF7CE
:1021C00099FC781C0544A019A842F5D8BDE8F08711
:1021D00010B591EA030F48BF83F0004300F170820D
:1021E000841A71EB030C05D2121943EB0C03001B8C
:1021F00061EB0C01DFF824E14FEA1154A4EB135C0E
:102200001EEA430F18BF9EEA445F73D023EA0E0311
:10221000DCF1200E21EA045143F4801332D322FA78
:102220000CFE10EB0E0023FA0CFE41EB0E01CCF17C
:10223000200E03FA0EFE10EB0E0051F10001B1F575
:10224000801FCCF1200E32D201EB045112FA0EF2B3
:10225000BDE8104058BF7047401C38BF5FEA4202DB
:1022600018BF7047002814BF20F0010041F10001A1
:102270004FEA410313F5001F38BF7047A1F1C04179
:1022800000F0CEB9012A43EB0302ACF1200CDCF1E3
:102290001F0E32BF4FF0000E23FA0CF310EB0300B9
:1022A00041EB0451B4EB115FD0D0A1EB045101F527
:1022B000801149085FEA300001EB04510ED350F160
:1022C000000038BF12FA0EFE08D1BDE81040C9E781
:1022D000401C38BF5FEA4202CAD1C3E7BDE81040E4
:1022E0004FEA410313F5001F38BF7047A1F1C04109
:1022F00000F096B99EEA445F08D011EA5E0FBDE88F
:10230000104004BF01F0004100207047BDE81040BC
:1023100070B500F037F900BF64FBBE3E0000E0FF7F
:10232000491058BFC1F140415B1058BFC3F1404351
:102330008B42EFF3008070474FEA1153A3F580639F
:10234000D3F11E03A8BFD3F1200C08DB4FF00042ED
:1023500042EAC12252EA505232FA03F0704709426F
:102360000BD4102BC4BF0020704703F5787CBCF160
:10237000FF3F05D04FF0FF3070474FF0000070472F
:1023800070B500F0FFF800BF49922480002070472C
:10239000F0E7B0FA80F310FA03F10AD0C3F11D039D
:1023A00003F580634FEA41504FEA035202EBD1211B
:1023B00070474FF00000704751EA030C17D41CF52A
:1023C000801F58BFBCF5801F00F10680994218BFDE
:1023D000704708BF9042704707D711F5801F58BF5C
:1023E00013F5801F19D499427047894270471CF534
:1023F000801F08D5BCF5801FF7D58B4218BF7047EA
:1024000008BF824270474FF4001C1CEB410F38BFDD
:102410001CEB430F01D28B42704770B500F0B2F84D
:10242000922449004FF000514FF08053FFF778BFDE
:10243000DFF848C170B51CEA111E1EBF1CEA131557
:102440009EEA0C0F95EA0C0F00F06F8081EA0304FE
:1024500023EA4C134EEAD47E21EA4C1141F4801158
:1024600043F48013AE44A1FB024CA0FB0365AEF124
:102470007F7E361955EB0C05A1FB034C4CF1000394
:10248000A0FB021C16EB0C06654153F10003094248
:1024900018BF46F0010613F4007F0BD14FEA033159
:1024A0004FEA0530340341EA155140EA16506FF007
:1024B00003020AE04FEAC3214FEAC520F40241EAD1
:1024C000555140EA56506FF0020202EB2E4201EBEA
:1024D000025585EACE710AD05FEA440C18BF24F099
:1024E000004450F1000041F1000120EAD47040F2B4
:1024F000FE7C624500D270BDA84214BF4FF08044FC
:102500004FF04044002E08BF0024BEF1806FA8BFEA
:10251000A1F1C041BDE8704080F282804FF0000020
:1025200001F1C04101F0004170479EEA0C0F0CEA36
:10253000131518BF95EA0C0F06D04FF0000081EA82
:10254000030E0EF0004170BD00F01CF88900013E42
:1025500000F007B800F009B84FEA430C5FEA5C5C92
:1025600008D081EA030100F05BB84FEA410C5FEA52
:102570005C5CF6D14FF00000014970470000FF0796
:102580000000F87F0EF1020E2EF0030E5EF8046BD1
:10259000364205D4012A43EB030515F5001F12D876
:1025A000012841EB010C1CF5001F0CD80ED14FEA9D
:1025B000D17C15F5001F0CEB4C0C0CF1020C08BF84
:1025C0004CEBD37C04E04FF0080C01E04FEAD37CE5
:1025D0000CEB4C0526FA05F606F00706B6F1040CDE
:1025E00006D20EEB860CBDE870404CF0010C604743
:1025F000DFE80CF0090B02024FF000414FF0000041
:10260000A1F5002170BD19461046012851EB0104C7
:1026100018BFD4F5001484BF002001F0004170BD44
:102620000808A0F500114FEA3101704753EA010C88
:1026300017D41CF5801F58BFBCF5801F00F1068021
:102640008B4218BF704708BF8242704707D713F507
:10265000801F58BF11F5801F19D48B4270479B42D1
:1026600070471CF5801F08D5BCF5801FF7D599422F
:1026700018BF704708BF904270474FF4001C1CEB16
:10268000430F38BF1CEB410F01D2994270470FB482
:102690000CBC03BCFFF7C1BE91EA030F10B581F07B
:1026A00000413FF59DAD83F0004300F009B8000004
:1026B00010B591EA030F48BF83F000433FF590AD9A
:1026C000841A71EB030C07D212198CF0004C43EB07
:1026D0000C03001B61EB0C01DFF8A4E14FEA11547D
:1026E000A4EB135C1EEA430F18BF9EEA445F00F0A0
:1026F000B08023EA6E03524221EA0451C3EB6E0319
:1027000038BF5B1EDCF1200E25D322FA0CFE10EB45
:102710000E0043FA0CFE41EB0E01CCF1200E03FA41
:102720000EFE10EB0E0051F10001CCF1200E29D469
:1027300012FA0EF201EB0451BDE8104058BF704789
:10274000401C1CBFB2F1004F704700280CBF491C51
:1027500020F00100704712EB020E43EB030218BF9A
:102760004FF0010E4EEA4202ACF1200CDCF11E0EDD
:1027700054D943FA0CFE10EB0E0051F1FF31CCF1AD
:102780001E0ED5D50EF1010E12FA0EFE404141EBA0
:10279000010101EB445C5FEA5C5C10D910EBDE7078
:1027A00001EB045138BFBEF1004FBDE8104018BF27
:1027B000704700280CBF491C20F00100704730D240
:1027C0004FEAD42C11F5001124F400641BD0B1FAA7
:1027D00081F20B3AA41AA41ED2F12003914030FAE0
:1027E00003F31943904001EBCC71002C01EB045131
:1027F000BDE81040A8BF704701F1C0414FF0000094
:1028000001F000417047B0FA80F310FA03F100D1F3
:1028100010BDE41A173C4805C90AE4E701EB04516E
:1028200010BD491001EB0451BDE810404FEA3000E3
:1028300002E04FF0000170474A0008BF0042F8D0A4
:10284000B2F5001F28BF704701F000414FF00000B3
:1028500070479EEA445F07D011EA5E0FBDE8104062
:1028600004BF002100207047BDE8104070B5FFF79D
:1028700089FE00BF40DFF63E83F0004110467047FE
:102880000000E0FF43004FEAD30C4FEA3C0C43400A
:102890001FBF40070CF1605113F0FE4F70471CF052
:1028A000006F03D100200CF0004170470CF0004392
:1028B00043EA507010B540EACC0000F000FA00BFC7
:1028C000000000924FEA0001FFF7AABE4FF000415E
:1028D0004FF00000A1F500217047000090EA010FC1
:1028E00048BF81F0004100F13C82421A3CBF801A8F
:1028F00089184FEAD0524FF07F4C1CEA410FA2EBEF
:10290000D15318BF9CEA026F00F03B804FF0004C9F
:102910004CEA00204CEA012121FA03FC10EB0C0CDC
:102920001ED202F1FF325FEA1C2040EBC25038BFDA
:1029300070471CF07F0F4FEA400C18BFBCF17F4F6F
:1029400038BF7047C3F12003994008BF20F0010051
:10295000BCF17F4F38BF7047A0F1C04000F0F5B91F
:102960004FEA3C00000A40EBC25028BF1CF0FF0FAA
:102970004FEA400CE6D018BFBCF17F4F38BF70471C
:10298000EAE79CEA026F05D010EA5C0F08BF00F08E
:102990000040704710B500F092F900BF64FBBE3EE6
:1029A0004FF47F0C1CEAD0121EBF1CEAD11392EA2E
:1029B0000C0F93EA0C0F00F0858090EA010F48BFDE
:1029C00042F4807240F4000C41F400002CF07F418E
:1029D00020F07F4000B58142A2EB03020FF2081CF9
:1029E000ACEB504EC0F100009EF800E04FEA4E0EF6
:1029F00000FB0EFC38BF49004FEA2C1C02F5FA021E
:102A00000CFB0EF34FEACE1E4FEA112C4FEAC12108
:102A10000EEB635E42EB22420EFB0CFC4FEA1C53B2
:102A200000FB03114FEA112C4FEA01310EFB0CFCA5
:102A30004FEADC4C00FB0C11C14228BF09184CEBDB
:102A400003335DF804EB10EB410143EBC250B2F5E8
:102A50007C0F38BF704729D512F0F00F1CBF00F172
:102A6000C04000F0004070470081828384858687E3
:102A700088898B8C8D8E8F919293959697999A9C3D
:102A80009D9FA0A2A3A5A7A8AAACAEB0B2B3B5B7AC
:102A9000B9BCBEC0C2C5C7C9CCCED1D4D7D9DCDF82
:102AA000E2E6E9ECF0F3F7FAFE0000004FEA400C32
:102AB0000CF1807CBCF17E4F28BF7047B0F1C04064
:102AC00000F043B990EA010F0CEAD11348BF42F479
:102AD0008072624538BF634507D213F47F0F16D06A
:102AE00080EA010000F00040704710B500F0E7F800
:102AF000097EFC3E00F005B880EA010000F00040CD
:102B0000704780EA010000F0004000F01EB912F4A6
:102B10007F0F04BF0248704780EA010000F015B93A
:102B20000000C07FC10DD1F19E0206DB4FEA0023F9
:102B300043F0004323FA02F07047004207D54FEA02
:102B40004001B1F1FE4F02D24FF00000704710B5C6
:102B500000F0B5F849922480002070476FEA200009
:102B60007047000010F0004148BF4042B0FA80F3C7
:102B700010FA03F2C3F19D030BD051EAC35101EBEC
:102B80001220530638BF704700F1010008BF20F043
:102B900001007047B0FA80F310FA03F2C3F19D030D
:102BA0000AD0D90501EB1220530638BF704700F157
:102BB000010008BF20F00100704700004FF47F0CB7
:102BC0001CEAD0121EBF1CEAD11392EA0C0F93EA42
:102BD0000C0F00F0478090EA010F48BF42F480726A
:102BE0004FF0004C4CEA00204CEA012102EB0302BA
:102BF000A0FB0113A2F50002002918BF43F0010356
:102C00005B0028BF4FEA330342EB22425FEA132CFA
:102C10004CEBC2502EBFBCEB436FB2F57C0F70473C
:102C20004FEA036CBCF1004F08BF20F00100B2F581
:102C30007C0F38BF70470BD582F0FF0212F5803F42
:102C4000C8BF704700F1C040D8BF00F000407047D7
:102C500000F5000C5FEA4C0C48BF7047B0F1C04073
:102C600000F073B890EA010F0CEAD11348BF42F4A8
:102C70008072624538BF634504D280EA010000F0EB
:102C80000040704710B500F01AF800BF8900013EFF
:102C900000F007B800F009B85FEA410C5FEA1C6C6D
:102CA00008D080EA010000F050B85FEA400C5FEA0B
:102CB0001C6CF6D14FF00040A0F5800070470EF17B
:102CC000020E2EF0030E5EF8044B244204D44FEAA9
:102CD0004102B2F17F4F11D84FEA4003B3F17F4F69
:102CE0000CD80ED14FEAD07CB2F17F4F0CEB4C0CDC
:102CF0000CF1020C08BF4CEBD17C04E04FF0080C47
:102D000001E04FEAD17C0CEB4C0324FA03F404F00D
:102D10000704B4F1040C06D20EEB840CBDE810409D
:102D20004CF0010C6047DFE80CF0070802024FF09E
:102D30000040A0F5800010BD0846420018BFD2F147
:102D4000807288BF00F0004010BDFF2141EAD050E2
:102D5000C005704790EA010F48BF81F000413FF580
:102D6000C4AD421A04D882F00042A0EB0200114424
:102D70004FEAD0524FF07F4C1CEA410FA2EBD153E7
:102D800018BF9CEA026F4AD04FF0004C4CEA00207A
:102D90004CEA012121FA03FCB0EB0C0C0FD412F029
:102DA000FE0F36D05FEA4C001DD5001240EBC2503A
:102DB00038BF70471CF03F0F18BF70470BE0A2F1FF
:102DC00001025FEA1C2040EBC25038BF70471CF084
:102DD0007F0F18BF7047C3F12003994014BF401EF6
:102DE00020F00100704780084FEA122308BF7047A7
:102DF000B0FA80FCA2EB0C02CCF1280C60FA0CF0CB
:102E000093EA122F04BF00EBC25070474FEAC37021
:102E10007047130A5FEADC1008BF7047F6E79CEAC8
:102E2000026F04D010EA5C0F08BF0020704710B595
:102E3000FFF745FF40DFF63E81F00040704700009D
:102E4000602E0000000000108C3900000801000016
:102E5000403E00008C390010440300006C0100006B
:102E6000027D000110092020282868B06020081089
:102E70000C2A283020200080804432240840062478
:102E800024243820014005242A1100076004202052
:102E90003009110A20093028281820242221204135
:102EA000071116510911484340303F200460A060CB
:102EB0005A232060671004003028102008302000BA
:102EC00004061D2568718A424F9112070221991349
:102ED000147F0211171006242A7F2A1208100623D5
:102EE000130864622720063649552240293305031A
:102EF000C130041C22413F400441221C38200408F8
:102F00003E08381208082208193328181832080118
:102F1000500500003030F910051008040238200672
:102F20003E5149453E8033427F5710064261514928
:102F3000467010062141454B316020061814127F5F
:102F40001048200C274545453900003C4A49494373
:102F500030040171098210063649494936B8200605
:102F6000064949291E89433636D04256084308147B
:102F7000A11550432424A9221498100602015109D6
:102F8000062F2005324979418010067E1111117EED
:102F900008527F5020063E41414122104241DA2131
:102FA00018214930067F0909090120200449493ABE
:102FB0001011D9367F01327F6820052040413F2023
:102FC000527F79137F400121282004020C022850EF
:102FD000067F0408107F60523E50118820063E4153
:102FE00051215EB724057F091929001246D8250012
:102FF000200501017F0150123F48163F3830061F5F
:103000002040201F1032601024066314081463B897
:103010002404087008BA153F434543B835A020067C
:1030200015167C16159F3241A614070004020102F2
:103030000407524098410E11B824055454547800A6
:10304000140544444438001238084200082248B0AD
:1030500012382025CA2405107E1101B830050C5203
:103060005252C0200408040438340400447DC030A7
:10307000052040403DC833102840151835D830048D
:103080007C041828527C3052386834047C14149024
:103090005006081414187C202110124890299E20F4
:1030A00005043F44400820053C40402020161C00F9
:1030B000259024051E201020F015CE2614A82405E6
:1030C00006484848C820054464544CB947083600AF
:1030D000157A41875B360888332A1C703B1C2AA06E
:1030E00018063C4241423C083D18033D2803400479
:1030F00020A020083FB0203003111031173C0422DB
:10310000202248033C042230224803111041185267
:10311000211852311832211820042828284121086A
:103120002DD8033FC0A8E8033E00E10315813F24EA
:1031300025E0035DB00321174F4034B0031238027D
:1031400042180740073820608080781040072038F8
:103150002239221807411821105D10044E000F0477
:1031600031303260093111432A18076118110943BF
:10317000203E1F21084E2A62041D48044200071DFC
:103180008004200440A0B0084118422A18522A188E
:10319000722A1862300663001810111860042A2879
:1031A000320611A01404B2A87A2D3225011E19CBC3
:1031B0000420041C22213C5C052C2A203FD9041940
:1031C000C93106356819DF5DF004600530484830C4
:1031D000061DC604310E4581321830221A246F4074
:1031E00044E004300530283A2C8610043A2C3890FC
:1031F000194825B8500C21222428100F0000B0A82F
:1032000078573C04A020A008051C04A030A0680545
:1032100011A11805A050102048318A3200FF3D202E
:10322000031C05023A0202C2032C0504063D0529CF
:10323000032C0504B6AD7D31032C0E80C0BFA080E9
:103240000004668595A8A84849042D8E034A0020ED
:103250001E28920421FE39483928490811082804FB
:10326000C0A8A80821084AA8083EAAE8053DE1052B
:103270003D99043225082DB00539AF2909670000B2
:10328000F865E855D851086B2A18F845D042180857
:1032900011174600C14108362AD841E055A846001A
:1032A0009929F0258911272C05A9AAA8F0A10315B1
:1032B000112D0005300540AAA9AA102AC05111D825
:1032C0003C06608088806021034228A115521D972A
:1032D00003240426252560240604222226296815B5
:1032E000701007A8D0AFA00070402DA0053004706A
:1032F000AAA80815D82F5028F8052004C040D008E7
:103300002C040002793F0411086F780205072C0491
:10331000050505EA035008030B0606A0A0A0153F0B
:103320000101F80435C84E2FA8061F0403F2051248
:1033300080012D69062C0510105410190613020483
:10334000021004002024912DB80311081A352424FA
:1033500005086C8A8AE025BE1D4F072C062000193F
:103360001415450315DF1B1A2289100A004060500E
:1033700048504040C10110160000C2C2FEFE0100CC
:10338000C3C31F1F0100C4C4FCFC0100C501106AB7
:103390000101C6BDBFBE0101C7C7C0C00100C882D0
:1033A00084830101C9C9FDFD0100CA858786010129
:1033B000CB888A890101CC8BCC8B0101CD8CCD8C43
:1033C0000101CE11CE110101CFCF13130100D0D0D6
:1033D0008F8F0100D1D11B1B0100D2D2919101002E
:1033E000D39294930101D49597960101D5179A9998
:1033F0000101D69B9D9C0101D701101C0000D8D86B
:103400009E9E0101D9D99F9F0101DAA0A2A10101CD
:10341000DBA3A5A40101DC0110160000DDA6A8A70E
:103420000101DEA9ABAA0101DFACAEAD0101E001F3
:10343000100A0000E1AFB1B00101E201101C000070
:10344000E3B2B4B30101E4B5B7B60101E5B8BAB966
:103450000101E6E6BCBC0100E70110040000E80140
:1034600010040000E90110040000EA01100400004B
:10347000EB0130040000ECE432ED0612EE01100422
:103480000000EF0110040000F00110040000F10141
:1034900010040000F20110040000F3011004000009
:1034A000F50110040000F60110040000F7011004FB
:1034B0000000F801342B0000FBF9FBFA0101BBBB53
:1034C000F4F40100811C1E1D010190181A1901015C
:1034D0009814161501018E8E121201008D108D1098
:1034E000D6BD040942C1071005FFFFFF0301500BC1
:1034F000E3E3E3C3830307071F3F11111420087F91
:10350000FFFF3F0303831F82FF27110112FF0710F4
:1035100004E1E1E123600A078FFFFF9F0F0F87039C
:1035200025B11A7101D1432139820F1E51873E7F87
:10353000DB0352C01116FE076006070300C0FC1F24
:103540003116251912F12B800BFFF1F1F0702000DC
:1035500002060F433125A11AA0067F3F1F3F7F625D
:103560005143197B93040E9E62F8017004FCFCFE2B
:1035700011410782FE0E71089132A3FCFC11F11A71
:10358000D2FE51610892FC4B01880164050F0707C8
:103590000313000B16C3CDEDE7FF3F0F07033F2FCB
:1035A000011B1D955D000A177F5F1F1F2F2F0F172F
:1035B000072255A41AFFCE1806003F3F3F1F842C58
:1035C000083F3B31200003FE00064145131F0F1545
:1035D00020053F3F0F0F0580061F3F3703FF1D915A
:1035E0002138053731200187300407031F311806C1
:1035F0003F3F38383027D2FE2918093F07030363BD
:10360000E3C71FB23005E0808307011C0483C0F0CC
:1036100054033406B8387E3C38DC15FC26F8C61A4C
:103620007F4838040E0CC0216104391065FD8121EA
:103630004005B818089C6BF805FCFCF8F826A14A70
:1036400052FC63051F9832FE01013A21012F29091E
:10365000707D1C057F3FDF0FCB03FC06C3C38131A8
:10366000F11A034C069F8F1FFF01220423FF3F0521
:10367000B1282E7FE403212311171126110E2004F7
:10368000CF071F131805CFCD881D0559632405F7F3
:10369000E7F7F7813C04FFF733B30474070F9FFF8C
:1036A000F1C00B651DFB035DD303498D6411E1CEB1
:1036B0009F9F9F919190D0E0F8F8D8D8DCFFCF750C
:1036C000D741281006BF9F9F8E84236BC8C81366FE
:1036D000FCDD394355B9713E6941514803A4FCFFF3
:1036E000011D96030C042D1F0FCF51047C04DF8FA6
:1036F000DF05047004BF7FBF17110101196B2C098E
:103700001F6FFFF8FDFFE7C3D905400FE743078FA1
:103710008F8FC38F8F8C80C0C78F0B3006C381996A
:1037200099C32922EF2E161FCA61152C1487898987
:1037300009038F8F898CCCC0E1C1898D8F8988C1A5
:103740005F0421865005879991031F100581C48469
:1037500081240C07118CC8E1E1E3F36F03559A3C17
:1037600005FEFBF9F900066004FDFDFD1C910B2927
:103770003332F9016EFD5C043131493F96FCD95971
:103780000D83FCFA1F01A601767FFF910D01101F2A
:103790005DDC04C121210F03197F3F21CD7C063F51
:1037A0002727CA073DC70321072C06111387FFF0FF
:1037B0000D0840088F9F1F030D0D830D1DFF036033
:1037C00008F7E3F7DF8F1F1F1F4C0BFF8F8F93014D
:1037D0001F1B1810846B0325EE19AD180C1F9F1EBC
:1037E0001282FF80001F1F8F22831F0F21616AB585
:1037F000F51C04FBFBF9BB034106D118C1137DB7CF
:10380000030F14FBFBAE053BFCF8150517E8011090
:1038100064B56E1DA1040E163F73070F1B9F9FA377
:1038200003321F042D0E0507153F3F6A515BB23F5F
:10383000491C111F7F7B717B6F478F8F86868F8C12
:103840008880C269032E876B035C049BB3C7900317
:103850001D5E052C078F0FCF8186864F037009C729
:103860004F0F8F8BC18189211C120FC7E3C9C9E398
:10387000FFC0808F8F80808A8BCDC15E032129504D
:1038800007FFC7819993C3322152100A8B89C9C39C
:10389000E3E7F7FFC767AEC348032101BDE106CDEB
:1038A000670361201962D0047D7D7C2B1D6C030DA4
:1038B0001B3E0733FDFD3DA1520D321B096FF3FD89
:1038C0008307080510FEFEFDF3412F7FBFD7040FCD
:1038D00056BF7F9D092C05FCFBF7F7210C4C06EF2A
:1038E000EFF7F7FB640462EF012DC20A2FE7EF57F1
:1038F000050F30EFE7560A02FF000101FF0101FF4B
:103900000101FF0101FF0101FF0101FF0101FF01B1
:1039100001FF0101FF0101FF0101F2012DC5122E7E
:10392000BF2B150E1D7FBD0C2D9A0E1D590F2D712D
:10393000111D7411210A31350D45F30C1D77112C21
:1039400004F0C0811818C21F8B1DC5171D87160EE5
:103950001901CD21130101376307079731952FF71F
:10396000C1C91A211A3101510C115D031B1F3FE718
:1039700022FE881007F0E0E0C0C0818D10060383AE
:103980008180C001064D80740C042980C1E17D1343
:10399000256A0004113C3830475D941B0115653CD5
:1039A0000680C0E0E0F0D518D1010D2E7C0E1DF18F
:1039B0001A4F0008CF162FF0E0061C8C04081C3CA0
:1039C000880FB1D95004C0E0F0730D4A7F143D62F6
:1039D000227D41182EFE29184F008043103DF6210C
:1039E000117811790D244F170D337F0F8D1B1A5D40
:1039F000331A4C05E3C181812A1D21780D74B11958
:103A00001AFEA811010004DBE1E1FF011DC61B1D28
:103A100002041D9C1A61012DAC192DEA030D1CB284
:103A2000043E7F4B132DAF04412D0E313FAA040CF1
:103A3000041B7F3F0F7A046D7C04A1994D78040D1F
:103A40001971050318C0F0B2727FB611F01E017D26
:103A5000040E39E07D042D8D038D851A2D0904EDAA
:103A600068138DF504410191298D731A6C051F0FA0
:103A7000060472044E6000041D9F1D1D0A040318F5
:103A8000E0C0770D4B0104219F1D7B044D98054E2E
:103A9000C188201E1F170652036C118C418B0C0429
:103AA00059020E3F70035C04C78787291C2F83824D
:103AB00071041D0B201C06C0C1C18101CC1E15B3B1
:103AC0003F1E0C96040E6FE30704A5B70D8DDD1B9A
:103AD0002DCD163D35081D85033DB4030004383F48
:103AE0003F7F4B5147ED09040118010D1A1B030FCD
:103AF00048F0FC05040D23870382FC01CDC1160F9D
:103B000013BFBF1A194E7FF8040D18FA082D1B04B5
:103B10000D1C1C040C062318183C7C7E61037EFEE1
:103B2000610371015DC8074D7F031DF9077D6A08B8
:103B30006D7408B13C7FF8F8A8044D4804414D3D30
:103B40003C094D7A090D3E04062D66291DE5072125
:103B5000922EFCA1091F8000AE223D16201C056795
:103B60004383839A033F0F07F4088D5E051804DF33
:103B70008F872C2D460521380D3C000842F0715DE1
:103B800055205DA00A5D2C0A3D85070D62F8034DA6
:103B90009D0A21010004A2F8F9FF015DD206810C03
:103BA000012E3A02187F50BD35074D67047D0C0485
:103BB0002D9D0C3C051F1D1818AA26DD2D0C4E034B
:103BC0003D083DC00CCD660C1C060F8787C3C3BDE6
:103BD000245563356B19C40F1F4001D3070D228C88
:103BE000073EC00E031DB30321014DAF0A4DF7225E
:103BF0000C0515EFE7F3F930071DD6220D3B7B04CA
:103C00003D050490051C1E1E1F010D1BB50D3D6CCE
:103C1000095E0F6E090E130138050F1AF8FE3804FD
:103C2000553B2D02216D010421F31D7025100D0E51
:103C30001E1E3E3E3E7C7C78787870016C043031EC
:103C40003BF8233E8FC5052DF1086D3D0854041E39
:103C50000602353EC0680731540D3C5308AEFE9154
:103C6000236D9E210D10641C2D3B243D520C0D77BD
:103C7000D60B4DDE041DE8080F6FC1E3AD035DAE4A
:103C800007EA1F30013A550F223F3F5D100E10FF2B
:103C9000E3245FFEFEF8092DED057D670B5D8D03C6
:103CA0007E01710B7E07F3037DF9076D0B105C0835
:103CB0003F3F3E3E3C3C383B0F21436D3C0C0D2CBE
:103CC0000D0C0F521F038432BC040181C180225DA0
:103CD000FD0B1DEE107C06010180C0405C0C0E1037
:103CE00001D80F4D660F4EF896060D1CDF114D04DE
:103CF000103D1C0A5D8D240D160610A004FC7020DA
:103D00006241014D81034DD40F0E14FC88265D01E4
:103D10000892F001CD71056E03B00D0D13B10D10B9
:103D200004C78783014381C1D50D44C30A1D4B12CB
:103D30004DA5089C04031F7E3D0C31D01D7B2C211A
:103D40007021010C045AC1E1F3AE07559F0C0776B0
:103D500001030F1F3F7FD6292DCF244EF0500411B1
:103D6000010E1EE1A8081C05F7F7F3F3D724395C10
:103D70002C04E1C181122C0D1F34130D61F4082DA8
:103D800090135DEF03AE03081069570D1909103E3B
:103D9000CFB50D052D833D75143D2B042D4D141EFF
:103DA0007F5E2A0E1F07CF03BD71144D69044D714C
:103DB00007C31F1C2201138D5DC0042D79077E01EE
:103DC000E1030C041C78703055080D3A99140C0668
:103DD00011010181C3F305101DF72A2AE32D4D04BB
:103DE000042D6D0AADBB0C5DAE236D1F105D2F154C
:103DF0000E15408414EE603B0471660D4821101DC1
:103E00009F0DBD7810193239314DB03005156F0D49
:103E10004619293D1B060F16C0E0CA2B3D590D3D22
:103E2000C1066B8103100D4B4F033EF0520A0C0488
:103E3000258183CFE60D5D820EAD002400000000D9
:04000005000001E90D
:00000001FF
